{
  "_format": "hh-sol-artifact-1",
  "contractName": "TigerBuggyNFT",
  "sourceName": "contracts/TigerBuggyNFT.sol",
  "abi": [
    {
      "inputs": [
        {
          "internalType": "address",
          "name": "_artist",
          "type": "address"
        },
        {
          "internalType": "uint256",
          "name": "_startingPrice",
          "type": "uint256"
        }
      ],
      "stateMutability": "nonpayable",
      "type": "constructor"
    },
    {
      "inputs": [
        {
          "internalType": "address",
          "name": "_artist",
          "type": "address"
        },
        {
          "internalType": "address",
          "name": "_deployer",
          "type": "address"
        },
        {
          "internalType": "uint256",
          "name": "_startingPrice",
          "type": "uint256"
        }
      ],
      "name": "_init_",
      "outputs": [],
      "stateMutability": "nonpayable",
      "type": "function"
    },
    {
      "inputs": [],
      "name": "artistRoyaltyPercentage",
      "outputs": [
        {
          "internalType": "uint256",
          "name": "",
          "type": "uint256"
        }
      ],
      "stateMutability": "view",
      "type": "function"
    },
    {
      "inputs": [
        {
          "internalType": "uint256",
          "name": "tigerIndex",
          "type": "uint256"
        }
      ],
      "name": "buyTiger",
      "outputs": [],
      "stateMutability": "payable",
      "type": "function"
    },
    {
      "inputs": [],
      "name": "contractRoyaltyPercentage",
      "outputs": [
        {
          "internalType": "uint256",
          "name": "",
          "type": "uint256"
        }
      ],
      "stateMutability": "view",
      "type": "function"
    },
    {
      "inputs": [
        {
          "internalType": "uint256",
          "name": "tigerIndex",
          "type": "uint256"
        }
      ],
      "name": "getOwner",
      "outputs": [
        {
          "internalType": "address",
          "name": "",
          "type": "address"
        }
      ],
      "stateMutability": "view",
      "type": "function"
    },
    {
      "inputs": [
        {
          "internalType": "uint256",
          "name": "tigerIndex",
          "type": "uint256"
        }
      ],
      "name": "isForSale",
      "outputs": [
        {
          "internalType": "bool",
          "name": "",
          "type": "bool"
        },
        {
          "internalType": "uint256",
          "name": "",
          "type": "uint256"
        }
      ],
      "stateMutability": "view",
      "type": "function"
    },
    {
      "inputs": [
        {
          "internalType": "address",
          "name": "",
          "type": "address"
        }
      ],
      "name": "pendingWithdrawals",
      "outputs": [
        {
          "internalType": "uint256",
          "name": "",
          "type": "uint256"
        }
      ],
      "stateMutability": "view",
      "type": "function"
    },
    {
      "inputs": [
        {
          "internalType": "uint256",
          "name": "tigerIndex",
          "type": "uint256"
        },
        {
          "internalType": "uint256",
          "name": "minSalePriceInWei",
          "type": "uint256"
        }
      ],
      "name": "putUpForSale",
      "outputs": [],
      "stateMutability": "nonpayable",
      "type": "function"
    },
    {
      "inputs": [
        {
          "internalType": "uint256",
          "name": "tigerIndex",
          "type": "uint256"
        },
        {
          "internalType": "uint256",
          "name": "minSalePriceInWei",
          "type": "uint256"
        },
        {
          "internalType": "address",
          "name": "buyer",
          "type": "address"
        }
      ],
      "name": "putUpForSaleToAddress",
      "outputs": [],
      "stateMutability": "nonpayable",
      "type": "function"
    },
    {
      "inputs": [
        {
          "internalType": "uint256",
          "name": "",
          "type": "uint256"
        }
      ],
      "name": "tigersForSale",
      "outputs": [
        {
          "internalType": "bool",
          "name": "isForSale",
          "type": "bool"
        },
        {
          "internalType": "address",
          "name": "seller",
          "type": "address"
        },
        {
          "internalType": "uint256",
          "name": "price",
          "type": "uint256"
        },
        {
          "internalType": "address",
          "name": "onlySellTo",
          "type": "address"
        }
      ],
      "stateMutability": "view",
      "type": "function"
    },
    {
      "inputs": [],
      "name": "totalSupply",
      "outputs": [
        {
          "internalType": "uint256",
          "name": "",
          "type": "uint256"
        }
      ],
      "stateMutability": "view",
      "type": "function"
    },
    {
      "inputs": [
        {
          "internalType": "uint256",
          "name": "tigerIndex",
          "type": "uint256"
        }
      ],
      "name": "withdrawFromSale",
      "outputs": [],
      "stateMutability": "nonpayable",
      "type": "function"
    },
    {
      "inputs": [],
      "name": "withdrawFunds",
      "outputs": [],
      "stateMutability": "nonpayable",
      "type": "function"
    }
  ],
  "bytecode": "0x60806040523480156200001157600080fd5b50604051620019b2380380620019b283398181016040528101906200003791906200016a565b600073ffffffffffffffffffffffffffffffffffffffff168273ffffffffffffffffffffffffffffffffffffffff1614156200007257600080fd5b620000a7600160009054906101000a900473ffffffffffffffffffffffffffffffffffffffff163383620000af60201b60201c565b50506200021d565b82600160006101000a81548173ffffffffffffffffffffffffffffffffffffffff021916908373ffffffffffffffffffffffffffffffffffffffff160217905550816000806101000a81548173ffffffffffffffffffffffffffffffffffffffff021916908373ffffffffffffffffffffffffffffffffffffffff16021790555080600281905550505050565b6000815190506200014d81620001e9565b92915050565b600081519050620001648162000203565b92915050565b600080604083850312156200017e57600080fd5b60006200018e858286016200013c565b9250506020620001a18582860162000153565b9150509250929050565b6000620001b882620001bf565b9050919050565b600073ffffffffffffffffffffffffffffffffffffffff82169050919050565b6000819050919050565b620001f481620001ab565b81146200020057600080fd5b50565b6200020e81620001df565b81146200021a57600080fd5b50565b611785806200022d6000396000f3fe6080604052600436106100c25760003560e01c80638861c2af1161007f578063adcd6b9b11610059578063adcd6b9b14610249578063c41a360a14610274578063c6bdab16146102b1578063f3f43703146102da576100c2565b80638861c2af146101c457806390f83fa714610204578063a791c7ec14610220576100c2565b806318160ddd146100c757806324600fc3146100f2578063321a3e2f146101095780635c06d0e0146101325780635e96c6941461015d5780638546d00214610186575b600080fd5b3480156100d357600080fd5b506100dc610317565b6040516100e991906114e5565b60405180910390f35b3480156100fe57600080fd5b5061010761031d565b005b34801561011557600080fd5b50610130600480360381019061012b919061127a565b61040c565b005b34801561013e57600080fd5b506101476105ea565b60405161015491906114e5565b60405180910390f35b34801561016957600080fd5b50610184600480360381019061017f91906112a3565b6105ef565b005b34801561019257600080fd5b506101ad60048036038101906101a8919061127a565b6107cc565b6040516101bb92919061145c565b60405180910390f35b3480156101d057600080fd5b506101eb60048036038101906101e6919061127a565b6108bf565b6040516101fb9493929190611417565b60405180910390f35b61021e6004803603810190610219919061127a565b61093c565b005b34801561022c57600080fd5b50610247600480360381019061024291906112df565b610bf8565b005b34801561025557600080fd5b5061025e610dd5565b60405161026b91906114e5565b60405180910390f35b34801561028057600080fd5b5061029b6004803603810190610296919061127a565b610dda565b6040516102a891906113fc565b60405180910390f35b3480156102bd57600080fd5b506102d860048036038101906102d3919061122b565b610ebc565b005b3480156102e657600080fd5b5061030160048036038101906102fc9190611202565b610f49565b60405161030e91906114e5565b60405180910390f35b6103e881565b3373ffffffffffffffffffffffffffffffffffffffff16600560003373ffffffffffffffffffffffffffffffffffffffff1673ffffffffffffffffffffffffffffffffffffffff16815260200190815260200160002054604051610380906113e7565b60006040518083038185875af1925050503d80600081146103bd576040519150601f19603f3d011682016040523d82523d6000602084013e6103c2565b606091505b5050506000600560003373ffffffffffffffffffffffffffffffffffffffff1673ffffffffffffffffffffffffffffffffffffffff16815260200190815260200160002081905550565b6103e88110610450576040517f08c379a000000000000000000000000000000000000000000000000000000000815260040161044790611485565b60405180910390fd5b3373ffffffffffffffffffffffffffffffffffffffff1661047082610dda565b73ffffffffffffffffffffffffffffffffffffffff16146104c6576040517f08c379a00000000000000000000000000000000000000000000000000000000081526004016104bd906114c5565b60405180910390fd5b6040518060800160405280600015158152602001600073ffffffffffffffffffffffffffffffffffffffff16815260200160008152602001600073ffffffffffffffffffffffffffffffffffffffff168152506004600083815260200190815260200160002060008201518160000160006101000a81548160ff02191690831515021790555060208201518160000160016101000a81548173ffffffffffffffffffffffffffffffffffffffff021916908373ffffffffffffffffffffffffffffffffffffffff1602179055506040820151816001015560608201518160020160006101000a81548173ffffffffffffffffffffffffffffffffffffffff021916908373ffffffffffffffffffffffffffffffffffffffff16021790555090505050565b600581565b6103e88210610633576040517f08c379a000000000000000000000000000000000000000000000000000000000815260040161062a90611485565b60405180910390fd5b3373ffffffffffffffffffffffffffffffffffffffff1661065383610dda565b73ffffffffffffffffffffffffffffffffffffffff16146106a9576040517f08c379a00000000000000000000000000000000000000000000000000000000081526004016106a0906114c5565b60405180910390fd5b60405180608001604052806001151581526020013373ffffffffffffffffffffffffffffffffffffffff168152602001828152602001600073ffffffffffffffffffffffffffffffffffffffff168152506004600084815260200190815260200160002060008201518160000160006101000a81548160ff02191690831515021790555060208201518160000160016101000a81548173ffffffffffffffffffffffffffffffffffffffff021916908373ffffffffffffffffffffffffffffffffffffffff1602179055506040820151816001015560608201518160020160006101000a81548173ffffffffffffffffffffffffffffffffffffffff021916908373ffffffffffffffffffffffffffffffffffffffff1602179055509050505050565b6000806103e88310610813576040517f08c379a000000000000000000000000000000000000000000000000000000000815260040161080a90611485565b60405180910390fd5b600061081e84610f61565b90508060000151801561089b5750600073ffffffffffffffffffffffffffffffffffffffff16816060015173ffffffffffffffffffffffffffffffffffffffff16148061089a57503373ffffffffffffffffffffffffffffffffffffffff16816060015173ffffffffffffffffffffffffffffffffffffffff16145b5b156108b1576001816040015192509250506108ba565b60008092509250505b915091565b60046020528060005260406000206000915090508060000160009054906101000a900460ff16908060000160019054906101000a900473ffffffffffffffffffffffffffffffffffffffff16908060010154908060020160009054906101000a900473ffffffffffffffffffffffffffffffffffffffff16905084565b6103e88110610980576040517f08c379a000000000000000000000000000000000000000000000000000000000815260040161097790611485565b60405180910390fd5b600061098b82610f61565b905080600001518015610a085750600073ffffffffffffffffffffffffffffffffffffffff16816060015173ffffffffffffffffffffffffffffffffffffffff161480610a0757503373ffffffffffffffffffffffffffffffffffffffff16816060015173ffffffffffffffffffffffffffffffffffffffff16145b5b610a47576040517f08c379a0000000000000000000000000000000000000000000000000000000008152600401610a3e906114a5565b60405180910390fd5b600080610a5334611144565b9150915081600560008060009054906101000a900473ffffffffffffffffffffffffffffffffffffffff1673ffffffffffffffffffffffffffffffffffffffff1673ffffffffffffffffffffffffffffffffffffffff1681526020019081526020016000206000828254610ac7919061151c565b925050819055508060056000600160009054906101000a900473ffffffffffffffffffffffffffffffffffffffff1673ffffffffffffffffffffffffffffffffffffffff1673ffffffffffffffffffffffffffffffffffffffff1681526020019081526020016000206000828254610b3f919061151c565b925050819055503460056000856020015173ffffffffffffffffffffffffffffffffffffffff1673ffffffffffffffffffffffffffffffffffffffff1681526020019081526020016000206000828254610b99919061151c565b92505081905550336003600086815260200190815260200160002060006101000a81548173ffffffffffffffffffffffffffffffffffffffff021916908373ffffffffffffffffffffffffffffffffffffffff16021790555050505050565b6103e88310610c3c576040517f08c379a0000000000000000000000000000000000000000000000000000000008152600401610c3390611485565b60405180910390fd5b3373ffffffffffffffffffffffffffffffffffffffff16610c5c84610dda565b73ffffffffffffffffffffffffffffffffffffffff1614610cb2576040517f08c379a0000000000000000000000000000000000000000000000000000000008152600401610ca9906114c5565b60405180910390fd5b60405180608001604052806001151581526020013373ffffffffffffffffffffffffffffffffffffffff1681526020018381526020018273ffffffffffffffffffffffffffffffffffffffff168152506004600085815260200190815260200160002060008201518160000160006101000a81548160ff02191690831515021790555060208201518160000160016101000a81548173ffffffffffffffffffffffffffffffffffffffff021916908373ffffffffffffffffffffffffffffffffffffffff1602179055506040820151816001015560608201518160020160006101000a81548173ffffffffffffffffffffffffffffffffffffffff021916908373ffffffffffffffffffffffffffffffffffffffff160217905550905050505050565b600181565b60006103e88210610e20576040517f08c379a0000000000000000000000000000000000000000000000000000000008152600401610e1790611485565b60405180910390fd5b60006003600084815260200190815260200160002060009054906101000a900473ffffffffffffffffffffffffffffffffffffffff169050600073ffffffffffffffffffffffffffffffffffffffff168173ffffffffffffffffffffffffffffffffffffffff161415610eb357600160009054906101000a900473ffffffffffffffffffffffffffffffffffffffff1690505b80915050919050565b82600160006101000a81548173ffffffffffffffffffffffffffffffffffffffff021916908373ffffffffffffffffffffffffffffffffffffffff160217905550816000806101000a81548173ffffffffffffffffffffffffffffffffffffffff021916908373ffffffffffffffffffffffffffffffffffffffff16021790555080600281905550505050565b60056020528060005260406000206000915090505481565b610f69611182565b600073ffffffffffffffffffffffffffffffffffffffff166003600084815260200190815260200160002060009054906101000a900473ffffffffffffffffffffffffffffffffffffffff1673ffffffffffffffffffffffffffffffffffffffff16141561104d576040518060800160405280600115158152602001600160009054906101000a900473ffffffffffffffffffffffffffffffffffffffff1673ffffffffffffffffffffffffffffffffffffffff1681526020016002548152602001600073ffffffffffffffffffffffffffffffffffffffff16815250905061113f565b600460008381526020019081526020016000206040518060800160405290816000820160009054906101000a900460ff161515151581526020016000820160019054906101000a900473ffffffffffffffffffffffffffffffffffffffff1673ffffffffffffffffffffffffffffffffffffffff1673ffffffffffffffffffffffffffffffffffffffff168152602001600182015481526020016002820160009054906101000a900473ffffffffffffffffffffffffffffffffffffffff1673ffffffffffffffffffffffffffffffffffffffff1673ffffffffffffffffffffffffffffffffffffffff168152505090505b919050565b60008082606460016111569190611572565b61116091906115a3565b915082606460056111719190611572565b61117b91906115a3565b9050915091565b6040518060800160405280600015158152602001600073ffffffffffffffffffffffffffffffffffffffff16815260200160008152602001600073ffffffffffffffffffffffffffffffffffffffff1681525090565b6000813590506111e781611721565b92915050565b6000813590506111fc81611738565b92915050565b60006020828403121561121457600080fd5b6000611222848285016111d8565b91505092915050565b60008060006060848603121561124057600080fd5b600061124e868287016111d8565b935050602061125f868287016111d8565b9250506040611270868287016111ed565b9150509250925092565b60006020828403121561128c57600080fd5b600061129a848285016111ed565b91505092915050565b600080604083850312156112b657600080fd5b60006112c4858286016111ed565b92505060206112d5858286016111ed565b9150509250929050565b6000806000606084860312156112f457600080fd5b6000611302868287016111ed565b9350506020611313868287016111ed565b9250506040611324868287016111d8565b9150509250925092565b611337816115fd565b82525050565b6113468161160f565b82525050565b600061135960128361150b565b9150611364826116a3565b602082019050919050565b600061137c600083611500565b9150611387826116cc565b600082019050919050565b600061139f600c8361150b565b91506113aa826116cf565b602082019050919050565b60006113c260098361150b565b91506113cd826116f8565b602082019050919050565b6113e18161163b565b82525050565b60006113f28261136f565b9150819050919050565b6000602082019050611411600083018461132e565b92915050565b600060808201905061142c600083018761133d565b611439602083018661132e565b61144660408301856113d8565b611453606083018461132e565b95945050505050565b6000604082019050611471600083018561133d565b61147e60208301846113d8565b9392505050565b6000602082019050818103600083015261149e8161134c565b9050919050565b600060208201905081810360008301526114be81611392565b9050919050565b600060208201905081810360008301526114de816113b5565b9050919050565b60006020820190506114fa60008301846113d8565b92915050565b600081905092915050565b600082825260208201905092915050565b60006115278261163b565b91506115328361163b565b9250827fffffffffffffffffffffffffffffffffffffffffffffffffffffffffffffffff0382111561156757611566611645565b5b828201905092915050565b600061157d8261163b565b91506115888361163b565b92508261159857611597611674565b5b828204905092915050565b60006115ae8261163b565b91506115b98361163b565b9250817fffffffffffffffffffffffffffffffffffffffffffffffffffffffffffffffff04831182151516156115f2576115f1611645565b5b828202905092915050565b60006116088261161b565b9050919050565b60008115159050919050565b600073ffffffffffffffffffffffffffffffffffffffff82169050919050565b6000819050919050565b7f4e487b7100000000000000000000000000000000000000000000000000000000600052601160045260246000fd5b7f4e487b7100000000000000000000000000000000000000000000000000000000600052601260045260246000fd5b7f696e646578206f7574206f662072616e67650000000000000000000000000000600082015250565b50565b7f6e6f7420666f722073616c650000000000000000000000000000000000000000600082015250565b7f6e6f74206f776e65720000000000000000000000000000000000000000000000600082015250565b61172a816115fd565b811461173557600080fd5b50565b6117418161163b565b811461174c57600080fd5b5056fea2646970667358221220a15000c7e6020393a7420434426ddf6884fb80d9ddb8f8d1cfb4c9338b78c0e064736f6c63430008020033",
  "linkReferences": {},
  "deployedLinkReferences": {}
}