{
  "_format": "hh-sol-artifact-1",
  "contractName": "TigerBuggyNFT",
  "sourceName": "contracts/TigerBuggyNFT.sol",
  "abi": [
    {
      "inputs": [
        {
          "internalType": "address",
          "name": "_artist",
          "type": "address"
        }
      ],
      "stateMutability": "nonpayable",
      "type": "constructor"
    },
    {
      "inputs": [
        {
          "internalType": "address",
          "name": "_artist",
          "type": "address"
        }
      ],
      "name": "_init_",
      "outputs": [],
      "stateMutability": "nonpayable",
      "type": "function"
    },
    {
      "inputs": [],
      "name": "artistRoyaltyPercentage",
      "outputs": [
        {
          "internalType": "uint256",
          "name": "",
          "type": "uint256"
        }
      ],
      "stateMutability": "view",
      "type": "function"
    },
    {
      "inputs": [
        {
          "internalType": "uint256",
          "name": "tigerIndex",
          "type": "uint256"
        }
      ],
      "name": "buyTiger",
      "outputs": [],
      "stateMutability": "payable",
      "type": "function"
    },
    {
      "inputs": [],
      "name": "contractRoyaltyPercentage",
      "outputs": [
        {
          "internalType": "uint256",
          "name": "",
          "type": "uint256"
        }
      ],
      "stateMutability": "view",
      "type": "function"
    },
    {
      "inputs": [
        {
          "internalType": "uint256",
          "name": "tigerIndex",
          "type": "uint256"
        }
      ],
      "name": "isForSale",
      "outputs": [
        {
          "internalType": "bool",
          "name": "",
          "type": "bool"
        },
        {
          "internalType": "uint256",
          "name": "",
          "type": "uint256"
        }
      ],
      "stateMutability": "view",
      "type": "function"
    },
    {
      "inputs": [
        {
          "internalType": "address",
          "name": "",
          "type": "address"
        }
      ],
      "name": "pendingWithdrawals",
      "outputs": [
        {
          "internalType": "uint256",
          "name": "",
          "type": "uint256"
        }
      ],
      "stateMutability": "view",
      "type": "function"
    },
    {
      "inputs": [
        {
          "internalType": "uint256",
          "name": "tigerIndex",
          "type": "uint256"
        },
        {
          "internalType": "uint256",
          "name": "minSalePriceInWei",
          "type": "uint256"
        }
      ],
      "name": "putUpForSale",
      "outputs": [],
      "stateMutability": "nonpayable",
      "type": "function"
    },
    {
      "inputs": [
        {
          "internalType": "uint256",
          "name": "tigerIndex",
          "type": "uint256"
        },
        {
          "internalType": "uint256",
          "name": "minSalePriceInWei",
          "type": "uint256"
        },
        {
          "internalType": "address",
          "name": "buyer",
          "type": "address"
        }
      ],
      "name": "putUpForSaleToAddress",
      "outputs": [],
      "stateMutability": "nonpayable",
      "type": "function"
    },
    {
      "inputs": [
        {
          "internalType": "uint256",
          "name": "",
          "type": "uint256"
        }
      ],
      "name": "tigerOwners",
      "outputs": [
        {
          "internalType": "address",
          "name": "",
          "type": "address"
        }
      ],
      "stateMutability": "view",
      "type": "function"
    },
    {
      "inputs": [
        {
          "internalType": "uint256",
          "name": "",
          "type": "uint256"
        }
      ],
      "name": "tigersForSale",
      "outputs": [
        {
          "internalType": "bool",
          "name": "isForSale",
          "type": "bool"
        },
        {
          "internalType": "address",
          "name": "seller",
          "type": "address"
        },
        {
          "internalType": "uint256",
          "name": "price",
          "type": "uint256"
        },
        {
          "internalType": "address",
          "name": "onlySellTo",
          "type": "address"
        }
      ],
      "stateMutability": "view",
      "type": "function"
    },
    {
      "inputs": [],
      "name": "totalSupply",
      "outputs": [
        {
          "internalType": "uint256",
          "name": "",
          "type": "uint256"
        }
      ],
      "stateMutability": "view",
      "type": "function"
    },
    {
      "inputs": [
        {
          "internalType": "uint256",
          "name": "tigerIndex",
          "type": "uint256"
        }
      ],
      "name": "withdrawFromSale",
      "outputs": [],
      "stateMutability": "nonpayable",
      "type": "function"
    },
    {
      "inputs": [],
      "name": "withdrawFunds",
      "outputs": [],
      "stateMutability": "nonpayable",
      "type": "function"
    }
  ],
  "bytecode": "0x60806040523480156200001157600080fd5b5060405162001ab338038062001ab3833981810160405281019062000037919062000183565b336000806101000a81548173ffffffffffffffffffffffffffffffffffffffff021916908373ffffffffffffffffffffffffffffffffffffffff160217905550620000aa600160009054906101000a900473ffffffffffffffffffffffffffffffffffffffff16620000b160201b60201c565b5062000284565b80600160006101000a81548173ffffffffffffffffffffffffffffffffffffffff021916908373ffffffffffffffffffffffffffffffffffffffff16021790555060005b6103e88110156200016857816002600083815260200190815260200160002060006101000a81548173ffffffffffffffffffffffffffffffffffffffff021916908373ffffffffffffffffffffffffffffffffffffffff16021790555080806200015f90620001ed565b915050620000f5565b5050565b6000815190506200017d816200026a565b92915050565b6000602082840312156200019657600080fd5b6000620001a6848285016200016c565b91505092915050565b6000620001bc82620001c3565b9050919050565b600073ffffffffffffffffffffffffffffffffffffffff82169050919050565b6000819050919050565b6000620001fa82620001e3565b91507fffffffffffffffffffffffffffffffffffffffffffffffffffffffffffffffff82141562000230576200022f6200023b565b5b600182019050919050565b7f4e487b7100000000000000000000000000000000000000000000000000000000600052601160045260246000fd5b6200027581620001af565b81146200028157600080fd5b50565b61181f80620002946000396000f3fe6080604052600436106100c25760003560e01c80638861c2af1161007f578063adcd6b9b11610059578063adcd6b9b14610249578063e5576f9b14610274578063ec5ce0a6146102b1578063f3f43703146102da576100c2565b80638861c2af146101c457806390f83fa714610204578063a791c7ec14610220576100c2565b806318160ddd146100c757806324600fc3146100f2578063321a3e2f146101095780635c06d0e0146101325780635e96c6941461015d5780638546d00214610186575b600080fd5b3480156100d357600080fd5b506100dc610317565b6040516100e9919061150d565b60405180910390f35b3480156100fe57600080fd5b5061010761031d565b005b34801561011557600080fd5b50610130600480360381019061012b919061125f565b61040c565b005b34801561013e57600080fd5b50610147610615565b604051610154919061150d565b60405180910390f35b34801561016957600080fd5b50610184600480360381019061017f9190611288565b61061a565b005b34801561019257600080fd5b506101ad60048036038101906101a8919061125f565b610822565b6040516101bb929190611464565b60405180910390f35b3480156101d057600080fd5b506101eb60048036038101906101e6919061125f565b6109fb565b6040516101fb949392919061141f565b60405180910390f35b61021e6004803603810190610219919061125f565b610a78565b005b34801561022c57600080fd5b50610247600480360381019061024291906112c4565b610ebf565b005b34801561025557600080fd5b5061025e6110c7565b60405161026b919061150d565b60405180910390f35b34801561028057600080fd5b5061029b6004803603810190610296919061125f565b6110cc565b6040516102a89190611404565b60405180910390f35b3480156102bd57600080fd5b506102d860048036038101906102d39190611236565b6110ff565b005b3480156102e657600080fd5b5061030160048036038101906102fc9190611236565b6111b6565b60405161030e919061150d565b60405180910390f35b6103e881565b3373ffffffffffffffffffffffffffffffffffffffff16600460003373ffffffffffffffffffffffffffffffffffffffff1673ffffffffffffffffffffffffffffffffffffffff16815260200190815260200160002054604051610380906113ef565b60006040518083038185875af1925050503d80600081146103bd576040519150601f19603f3d011682016040523d82523d6000602084013e6103c2565b606091505b5050506000600460003373ffffffffffffffffffffffffffffffffffffffff1673ffffffffffffffffffffffffffffffffffffffff16815260200190815260200160002081905550565b6103e88110610450576040517f08c379a00000000000000000000000000000000000000000000000000000000081526004016104479061148d565b60405180910390fd5b3373ffffffffffffffffffffffffffffffffffffffff166002600083815260200190815260200160002060009054906101000a900473ffffffffffffffffffffffffffffffffffffffff1673ffffffffffffffffffffffffffffffffffffffff16146104f1576040517f08c379a00000000000000000000000000000000000000000000000000000000081526004016104e8906114ed565b60405180910390fd5b6040518060800160405280600015158152602001600073ffffffffffffffffffffffffffffffffffffffff16815260200160008152602001600073ffffffffffffffffffffffffffffffffffffffff168152506003600083815260200190815260200160002060008201518160000160006101000a81548160ff02191690831515021790555060208201518160000160016101000a81548173ffffffffffffffffffffffffffffffffffffffff021916908373ffffffffffffffffffffffffffffffffffffffff1602179055506040820151816001015560608201518160020160006101000a81548173ffffffffffffffffffffffffffffffffffffffff021916908373ffffffffffffffffffffffffffffffffffffffff16021790555090505050565b600581565b6103e8821061065e576040517f08c379a00000000000000000000000000000000000000000000000000000000081526004016106559061148d565b60405180910390fd5b3373ffffffffffffffffffffffffffffffffffffffff166002600084815260200190815260200160002060009054906101000a900473ffffffffffffffffffffffffffffffffffffffff1673ffffffffffffffffffffffffffffffffffffffff16146106ff576040517f08c379a00000000000000000000000000000000000000000000000000000000081526004016106f6906114ed565b60405180910390fd5b60405180608001604052806001151581526020013373ffffffffffffffffffffffffffffffffffffffff168152602001828152602001600073ffffffffffffffffffffffffffffffffffffffff168152506003600084815260200190815260200160002060008201518160000160006101000a81548160ff02191690831515021790555060208201518160000160016101000a81548173ffffffffffffffffffffffffffffffffffffffff021916908373ffffffffffffffffffffffffffffffffffffffff1602179055506040820151816001015560608201518160020160006101000a81548173ffffffffffffffffffffffffffffffffffffffff021916908373ffffffffffffffffffffffffffffffffffffffff1602179055509050505050565b6000806103e88310610869576040517f08c379a00000000000000000000000000000000000000000000000000000000081526004016108609061148d565b60405180910390fd5b6000600360008581526020019081526020016000206040518060800160405290816000820160009054906101000a900460ff161515151581526020016000820160019054906101000a900473ffffffffffffffffffffffffffffffffffffffff1673ffffffffffffffffffffffffffffffffffffffff1673ffffffffffffffffffffffffffffffffffffffff168152602001600182015481526020016002820160009054906101000a900473ffffffffffffffffffffffffffffffffffffffff1673ffffffffffffffffffffffffffffffffffffffff1673ffffffffffffffffffffffffffffffffffffffff16815250509050806000015180156109d75750600073ffffffffffffffffffffffffffffffffffffffff16816060015173ffffffffffffffffffffffffffffffffffffffff1614806109d657503373ffffffffffffffffffffffffffffffffffffffff16816060015173ffffffffffffffffffffffffffffffffffffffff16145b5b156109ed576001816040015192509250506109f6565b60008092509250505b915091565b60036020528060005260406000206000915090508060000160009054906101000a900460ff16908060000160019054906101000a900473ffffffffffffffffffffffffffffffffffffffff16908060010154908060020160009054906101000a900473ffffffffffffffffffffffffffffffffffffffff16905084565b6103e88110610abc576040517f08c379a0000000000000000000000000000000000000000000000000000000008152600401610ab39061148d565b60405180910390fd5b6000600360008381526020019081526020016000206040518060800160405290816000820160009054906101000a900460ff161515151581526020016000820160019054906101000a900473ffffffffffffffffffffffffffffffffffffffff1673ffffffffffffffffffffffffffffffffffffffff1673ffffffffffffffffffffffffffffffffffffffff168152602001600182015481526020016002820160009054906101000a900473ffffffffffffffffffffffffffffffffffffffff1673ffffffffffffffffffffffffffffffffffffffff1673ffffffffffffffffffffffffffffffffffffffff1681525050905080600001518015610c2a5750600073ffffffffffffffffffffffffffffffffffffffff16816060015173ffffffffffffffffffffffffffffffffffffffff161480610c2957503373ffffffffffffffffffffffffffffffffffffffff16816060015173ffffffffffffffffffffffffffffffffffffffff16145b5b610c69576040517f08c379a0000000000000000000000000000000000000000000000000000000008152600401610c60906114cd565b60405180910390fd5b6002600083815260200190815260200160002060009054906101000a900473ffffffffffffffffffffffffffffffffffffffff1673ffffffffffffffffffffffffffffffffffffffff16816020015173ffffffffffffffffffffffffffffffffffffffff1614610d0e576040517f08c379a0000000000000000000000000000000000000000000000000000000008152600401610d05906114ad565b60405180910390fd5b600080610d1a346111ce565b9150915081600460008060009054906101000a900473ffffffffffffffffffffffffffffffffffffffff1673ffffffffffffffffffffffffffffffffffffffff1673ffffffffffffffffffffffffffffffffffffffff1681526020019081526020016000206000828254610d8e9190611544565b925050819055508060046000600160009054906101000a900473ffffffffffffffffffffffffffffffffffffffff1673ffffffffffffffffffffffffffffffffffffffff1673ffffffffffffffffffffffffffffffffffffffff1681526020019081526020016000206000828254610e069190611544565b925050819055503460046000856020015173ffffffffffffffffffffffffffffffffffffffff1673ffffffffffffffffffffffffffffffffffffffff1681526020019081526020016000206000828254610e609190611544565b92505081905550336002600086815260200190815260200160002060006101000a81548173ffffffffffffffffffffffffffffffffffffffff021916908373ffffffffffffffffffffffffffffffffffffffff16021790555050505050565b6103e88310610f03576040517f08c379a0000000000000000000000000000000000000000000000000000000008152600401610efa9061148d565b60405180910390fd5b3373ffffffffffffffffffffffffffffffffffffffff166002600085815260200190815260200160002060009054906101000a900473ffffffffffffffffffffffffffffffffffffffff1673ffffffffffffffffffffffffffffffffffffffff1614610fa4576040517f08c379a0000000000000000000000000000000000000000000000000000000008152600401610f9b906114ed565b60405180910390fd5b60405180608001604052806001151581526020013373ffffffffffffffffffffffffffffffffffffffff1681526020018381526020018273ffffffffffffffffffffffffffffffffffffffff168152506003600085815260200190815260200160002060008201518160000160006101000a81548160ff02191690831515021790555060208201518160000160016101000a81548173ffffffffffffffffffffffffffffffffffffffff021916908373ffffffffffffffffffffffffffffffffffffffff1602179055506040820151816001015560608201518160020160006101000a81548173ffffffffffffffffffffffffffffffffffffffff021916908373ffffffffffffffffffffffffffffffffffffffff160217905550905050505050565b600181565b60026020528060005260406000206000915054906101000a900473ffffffffffffffffffffffffffffffffffffffff1681565b80600160006101000a81548173ffffffffffffffffffffffffffffffffffffffff021916908373ffffffffffffffffffffffffffffffffffffffff16021790555060005b6103e88110156111b257816002600083815260200190815260200160002060006101000a81548173ffffffffffffffffffffffffffffffffffffffff021916908373ffffffffffffffffffffffffffffffffffffffff16021790555080806111aa9061166d565b915050611143565b5050565b60046020528060005260406000206000915090505481565b60008082606460016111e0919061159a565b6111ea91906115cb565b915082606460056111fb919061159a565b61120591906115cb565b9050915091565b60008135905061121b816117bb565b92915050565b600081359050611230816117d2565b92915050565b60006020828403121561124857600080fd5b60006112568482850161120c565b91505092915050565b60006020828403121561127157600080fd5b600061127f84828501611221565b91505092915050565b6000806040838503121561129b57600080fd5b60006112a985828601611221565b92505060206112ba85828601611221565b9150509250929050565b6000806000606084860312156112d957600080fd5b60006112e786828701611221565b93505060206112f886828701611221565b92505060406113098682870161120c565b9150509250925092565b61131c81611625565b82525050565b61132b81611637565b82525050565b600061133e601283611533565b915061134982611714565b602082019050919050565b6000611361601583611533565b915061136c8261173d565b602082019050919050565b6000611384600083611528565b915061138f82611766565b600082019050919050565b60006113a7600c83611533565b91506113b282611769565b602082019050919050565b60006113ca600983611533565b91506113d582611792565b602082019050919050565b6113e981611663565b82525050565b60006113fa82611377565b9150819050919050565b60006020820190506114196000830184611313565b92915050565b60006080820190506114346000830187611322565b6114416020830186611313565b61144e60408301856113e0565b61145b6060830184611313565b95945050505050565b60006040820190506114796000830185611322565b61148660208301846113e0565b9392505050565b600060208201905081810360008301526114a681611331565b9050919050565b600060208201905081810360008301526114c681611354565b9050919050565b600060208201905081810360008301526114e68161139a565b9050919050565b60006020820190508181036000830152611506816113bd565b9050919050565b600060208201905061152260008301846113e0565b92915050565b600081905092915050565b600082825260208201905092915050565b600061154f82611663565b915061155a83611663565b9250827fffffffffffffffffffffffffffffffffffffffffffffffffffffffffffffffff0382111561158f5761158e6116b6565b5b828201905092915050565b60006115a582611663565b91506115b083611663565b9250826115c0576115bf6116e5565b5b828204905092915050565b60006115d682611663565b91506115e183611663565b9250817fffffffffffffffffffffffffffffffffffffffffffffffffffffffffffffffff048311821515161561161a576116196116b6565b5b828202905092915050565b600061163082611643565b9050919050565b60008115159050919050565b600073ffffffffffffffffffffffffffffffffffffffff82169050919050565b6000819050919050565b600061167882611663565b91507fffffffffffffffffffffffffffffffffffffffffffffffffffffffffffffffff8214156116ab576116aa6116b6565b5b600182019050919050565b7f4e487b7100000000000000000000000000000000000000000000000000000000600052601160045260246000fd5b7f4e487b7100000000000000000000000000000000000000000000000000000000600052601260045260246000fd5b7f696e646578206f7574206f662072616e67650000000000000000000000000000600082015250565b7f73656c6c6572206e6f206c6f6e676572206f776e730000000000000000000000600082015250565b50565b7f6e6f7420666f722073616c650000000000000000000000000000000000000000600082015250565b7f6e6f74206f776e65720000000000000000000000000000000000000000000000600082015250565b6117c481611625565b81146117cf57600080fd5b50565b6117db81611663565b81146117e657600080fd5b5056fea2646970667358221220025665bd350cc92be8377b52336f9ea1192304049370f8fbddadee563e1f9f9664736f6c63430008020033",
  "linkReferences": {},
  "deployedLinkReferences": {}
}