{
  "_format": "hh-sol-artifact-1",
  "contractName": "TigerBasicNFT",
  "sourceName": "contracts/TigerBasicNFT.sol",
  "abi": [
    {
      "inputs": [
        {
          "internalType": "address",
          "name": "_artist",
          "type": "address"
        },
        {
          "internalType": "uint256",
          "name": "_startingPrice",
          "type": "uint256"
        }
      ],
      "stateMutability": "nonpayable",
      "type": "constructor"
    },
    {
      "inputs": [
        {
          "internalType": "uint256",
          "name": "tigerIndex",
          "type": "uint256"
        }
      ],
      "name": "buyTiger",
      "outputs": [],
      "stateMutability": "payable",
      "type": "function"
    },
    {
      "inputs": [
        {
          "internalType": "uint256",
          "name": "tigerIndex",
          "type": "uint256"
        }
      ],
      "name": "getOwner",
      "outputs": [
        {
          "internalType": "address",
          "name": "",
          "type": "address"
        }
      ],
      "stateMutability": "view",
      "type": "function"
    },
    {
      "inputs": [
        {
          "internalType": "uint256",
          "name": "tigerIndex",
          "type": "uint256"
        }
      ],
      "name": "isForSale",
      "outputs": [
        {
          "internalType": "bool",
          "name": "",
          "type": "bool"
        },
        {
          "internalType": "uint256",
          "name": "",
          "type": "uint256"
        }
      ],
      "stateMutability": "view",
      "type": "function"
    },
    {
      "inputs": [
        {
          "internalType": "address",
          "name": "",
          "type": "address"
        }
      ],
      "name": "pendingWithdrawals",
      "outputs": [
        {
          "internalType": "uint256",
          "name": "",
          "type": "uint256"
        }
      ],
      "stateMutability": "view",
      "type": "function"
    },
    {
      "inputs": [
        {
          "internalType": "uint256",
          "name": "tigerIndex",
          "type": "uint256"
        },
        {
          "internalType": "uint256",
          "name": "minSalePriceInWei",
          "type": "uint256"
        }
      ],
      "name": "putUpForSale",
      "outputs": [],
      "stateMutability": "nonpayable",
      "type": "function"
    },
    {
      "inputs": [
        {
          "internalType": "uint256",
          "name": "tigerIndex",
          "type": "uint256"
        },
        {
          "internalType": "uint256",
          "name": "minSalePriceInWei",
          "type": "uint256"
        },
        {
          "internalType": "address",
          "name": "buyer",
          "type": "address"
        }
      ],
      "name": "putUpForSaleToAddress",
      "outputs": [],
      "stateMutability": "nonpayable",
      "type": "function"
    },
    {
      "inputs": [
        {
          "internalType": "uint256",
          "name": "",
          "type": "uint256"
        }
      ],
      "name": "tigersForSale",
      "outputs": [
        {
          "internalType": "bool",
          "name": "isForSale",
          "type": "bool"
        },
        {
          "internalType": "address",
          "name": "seller",
          "type": "address"
        },
        {
          "internalType": "uint256",
          "name": "price",
          "type": "uint256"
        },
        {
          "internalType": "address",
          "name": "onlySellTo",
          "type": "address"
        }
      ],
      "stateMutability": "view",
      "type": "function"
    },
    {
      "inputs": [],
      "name": "totalSupply",
      "outputs": [
        {
          "internalType": "uint256",
          "name": "",
          "type": "uint256"
        }
      ],
      "stateMutability": "view",
      "type": "function"
    },
    {
      "inputs": [
        {
          "internalType": "uint256",
          "name": "tigerIndex",
          "type": "uint256"
        }
      ],
      "name": "withdrawFromSale",
      "outputs": [],
      "stateMutability": "nonpayable",
      "type": "function"
    }
  ],
  "bytecode": "0x60806040523480156200001157600080fd5b506040516200174c3803806200174c833981810160405281019062000037919062000130565b600073ffffffffffffffffffffffffffffffffffffffff168273ffffffffffffffffffffffffffffffffffffffff1614156200007257600080fd5b81600160006101000a81548173ffffffffffffffffffffffffffffffffffffffff021916908373ffffffffffffffffffffffffffffffffffffffff16021790555080600281905550336000806101000a81548173ffffffffffffffffffffffffffffffffffffffff021916908373ffffffffffffffffffffffffffffffffffffffff1602179055505050620001e3565b6000815190506200011381620001af565b92915050565b6000815190506200012a81620001c9565b92915050565b600080604083850312156200014457600080fd5b6000620001548582860162000102565b9250506020620001678582860162000119565b9150509250929050565b60006200017e8262000185565b9050919050565b600073ffffffffffffffffffffffffffffffffffffffff82169050919050565b6000819050919050565b620001ba8162000171565b8114620001c657600080fd5b50565b620001d481620001a5565b8114620001e057600080fd5b50565b61155980620001f36000396000f3fe6080604052600436106100865760003560e01c80638861c2af116100595780638861c2af1461014657806390f83fa714610186578063a791c7ec146101a2578063c41a360a146101cb578063f3f437031461020857610086565b806318160ddd1461008b578063321a3e2f146100b65780635e96c694146100df5780638546d00214610108575b600080fd5b34801561009757600080fd5b506100a0610245565b6040516100ad919061132f565b60405180910390f35b3480156100c257600080fd5b506100dd60048036038101906100d89190611076565b61024b565b005b3480156100eb57600080fd5b506101066004803603810190610101919061109f565b610429565b005b34801561011457600080fd5b5061012f600480360381019061012a9190611076565b610606565b60405161013d929190611266565b60405180910390f35b34801561015257600080fd5b5061016d60048036038101906101689190611076565b6106f9565b60405161017d9493929190611221565b60405180910390f35b6101a0600480360381019061019b9190611076565b610776565b005b3480156101ae57600080fd5b506101c960048036038101906101c491906110db565b610b13565b005b3480156101d757600080fd5b506101f260048036038101906101ed9190611076565b610cf0565b6040516101ff9190611206565b60405180910390f35b34801561021457600080fd5b5061022f600480360381019061022a919061104d565b610dd2565b60405161023c919061132f565b60405180910390f35b6103e881565b6103e8811061028f576040517f08c379a00000000000000000000000000000000000000000000000000000000081526004016102869061128f565b60405180910390fd5b3373ffffffffffffffffffffffffffffffffffffffff166102af82610cf0565b73ffffffffffffffffffffffffffffffffffffffff1614610305576040517f08c379a00000000000000000000000000000000000000000000000000000000081526004016102fc9061130f565b60405180910390fd5b6040518060800160405280600015158152602001600073ffffffffffffffffffffffffffffffffffffffff16815260200160008152602001600073ffffffffffffffffffffffffffffffffffffffff168152506004600083815260200190815260200160002060008201518160000160006101000a81548160ff02191690831515021790555060208201518160000160016101000a81548173ffffffffffffffffffffffffffffffffffffffff021916908373ffffffffffffffffffffffffffffffffffffffff1602179055506040820151816001015560608201518160020160006101000a81548173ffffffffffffffffffffffffffffffffffffffff021916908373ffffffffffffffffffffffffffffffffffffffff16021790555090505050565b6103e8821061046d576040517f08c379a00000000000000000000000000000000000000000000000000000000081526004016104649061128f565b60405180910390fd5b3373ffffffffffffffffffffffffffffffffffffffff1661048d83610cf0565b73ffffffffffffffffffffffffffffffffffffffff16146104e3576040517f08c379a00000000000000000000000000000000000000000000000000000000081526004016104da9061130f565b60405180910390fd5b60405180608001604052806001151581526020013373ffffffffffffffffffffffffffffffffffffffff168152602001828152602001600073ffffffffffffffffffffffffffffffffffffffff168152506004600084815260200190815260200160002060008201518160000160006101000a81548160ff02191690831515021790555060208201518160000160016101000a81548173ffffffffffffffffffffffffffffffffffffffff021916908373ffffffffffffffffffffffffffffffffffffffff1602179055506040820151816001015560608201518160020160006101000a81548173ffffffffffffffffffffffffffffffffffffffff021916908373ffffffffffffffffffffffffffffffffffffffff1602179055509050505050565b6000806103e8831061064d576040517f08c379a00000000000000000000000000000000000000000000000000000000081526004016106449061128f565b60405180910390fd5b600061065884610dea565b9050806000015180156106d55750600073ffffffffffffffffffffffffffffffffffffffff16816060015173ffffffffffffffffffffffffffffffffffffffff1614806106d457503373ffffffffffffffffffffffffffffffffffffffff16816060015173ffffffffffffffffffffffffffffffffffffffff16145b5b156106eb576001816040015192509250506106f4565b60008092509250505b915091565b60046020528060005260406000206000915090508060000160009054906101000a900460ff16908060000160019054906101000a900473ffffffffffffffffffffffffffffffffffffffff16908060010154908060020160009054906101000a900473ffffffffffffffffffffffffffffffffffffffff16905084565b6103e881106107ba576040517f08c379a00000000000000000000000000000000000000000000000000000000081526004016107b19061128f565b60405180910390fd5b60006107c582610dea565b9050806000015180156108425750600073ffffffffffffffffffffffffffffffffffffffff16816060015173ffffffffffffffffffffffffffffffffffffffff16148061084157503373ffffffffffffffffffffffffffffffffffffffff16816060015173ffffffffffffffffffffffffffffffffffffffff16145b5b610881576040517f08c379a0000000000000000000000000000000000000000000000000000000008152600401610878906112ef565b60405180910390fd5b80604001513410156108c8576040517f08c379a00000000000000000000000000000000000000000000000000000000081526004016108bf906112af565b60405180910390fd5b6108d182610cf0565b73ffffffffffffffffffffffffffffffffffffffff16816020015173ffffffffffffffffffffffffffffffffffffffff1614610942576040517f08c379a0000000000000000000000000000000000000000000000000000000008152600401610939906112cf565b60405180910390fd5b336003600084815260200190815260200160002060006101000a81548173ffffffffffffffffffffffffffffffffffffffff021916908373ffffffffffffffffffffffffffffffffffffffff1602179055506040518060800160405280600015158152602001600073ffffffffffffffffffffffffffffffffffffffff16815260200160008152602001600073ffffffffffffffffffffffffffffffffffffffff168152506004600084815260200190815260200160002060008201518160000160006101000a81548160ff02191690831515021790555060208201518160000160016101000a81548173ffffffffffffffffffffffffffffffffffffffff021916908373ffffffffffffffffffffffffffffffffffffffff1602179055506040820151816001015560608201518160020160006101000a81548173ffffffffffffffffffffffffffffffffffffffff021916908373ffffffffffffffffffffffffffffffffffffffff1602179055509050503460056000836020015173ffffffffffffffffffffffffffffffffffffffff1673ffffffffffffffffffffffffffffffffffffffff1681526020019081526020016000206000828254610b08919061135b565b925050819055505050565b6103e88310610b57576040517f08c379a0000000000000000000000000000000000000000000000000000000008152600401610b4e9061128f565b60405180910390fd5b3373ffffffffffffffffffffffffffffffffffffffff16610b7784610cf0565b73ffffffffffffffffffffffffffffffffffffffff1614610bcd576040517f08c379a0000000000000000000000000000000000000000000000000000000008152600401610bc49061130f565b60405180910390fd5b60405180608001604052806001151581526020013373ffffffffffffffffffffffffffffffffffffffff1681526020018381526020018273ffffffffffffffffffffffffffffffffffffffff168152506004600085815260200190815260200160002060008201518160000160006101000a81548160ff02191690831515021790555060208201518160000160016101000a81548173ffffffffffffffffffffffffffffffffffffffff021916908373ffffffffffffffffffffffffffffffffffffffff1602179055506040820151816001015560608201518160020160006101000a81548173ffffffffffffffffffffffffffffffffffffffff021916908373ffffffffffffffffffffffffffffffffffffffff160217905550905050505050565b60006103e88210610d36576040517f08c379a0000000000000000000000000000000000000000000000000000000008152600401610d2d9061128f565b60405180910390fd5b60006003600084815260200190815260200160002060009054906101000a900473ffffffffffffffffffffffffffffffffffffffff169050600073ffffffffffffffffffffffffffffffffffffffff168173ffffffffffffffffffffffffffffffffffffffff161415610dc957600160009054906101000a900473ffffffffffffffffffffffffffffffffffffffff1690505b80915050919050565b60056020528060005260406000206000915090505481565b610df2610fcd565b600073ffffffffffffffffffffffffffffffffffffffff166003600084815260200190815260200160002060009054906101000a900473ffffffffffffffffffffffffffffffffffffffff1673ffffffffffffffffffffffffffffffffffffffff161415610ed6576040518060800160405280600115158152602001600160009054906101000a900473ffffffffffffffffffffffffffffffffffffffff1673ffffffffffffffffffffffffffffffffffffffff1681526020016002548152602001600073ffffffffffffffffffffffffffffffffffffffff168152509050610fc8565b600460008381526020019081526020016000206040518060800160405290816000820160009054906101000a900460ff161515151581526020016000820160019054906101000a900473ffffffffffffffffffffffffffffffffffffffff1673ffffffffffffffffffffffffffffffffffffffff1673ffffffffffffffffffffffffffffffffffffffff168152602001600182015481526020016002820160009054906101000a900473ffffffffffffffffffffffffffffffffffffffff1673ffffffffffffffffffffffffffffffffffffffff1673ffffffffffffffffffffffffffffffffffffffff168152505090505b919050565b6040518060800160405280600015158152602001600073ffffffffffffffffffffffffffffffffffffffff16815260200160008152602001600073ffffffffffffffffffffffffffffffffffffffff1681525090565b600081359050611032816114f5565b92915050565b6000813590506110478161150c565b92915050565b60006020828403121561105f57600080fd5b600061106d84828501611023565b91505092915050565b60006020828403121561108857600080fd5b600061109684828501611038565b91505092915050565b600080604083850312156110b257600080fd5b60006110c085828601611038565b92505060206110d185828601611038565b9150509250929050565b6000806000606084860312156110f057600080fd5b60006110fe86828701611038565b935050602061110f86828701611038565b925050604061112086828701611023565b9150509250925092565b611133816113b1565b82525050565b611142816113c3565b82525050565b600061115560128361134a565b915061116082611428565b602082019050919050565b6000611178600d8361134a565b915061118382611451565b602082019050919050565b600061119b60158361134a565b91506111a68261147a565b602082019050919050565b60006111be600c8361134a565b91506111c9826114a3565b602082019050919050565b60006111e160098361134a565b91506111ec826114cc565b602082019050919050565b611200816113ef565b82525050565b600060208201905061121b600083018461112a565b92915050565b60006080820190506112366000830187611139565b611243602083018661112a565b61125060408301856111f7565b61125d606083018461112a565b95945050505050565b600060408201905061127b6000830185611139565b61128860208301846111f7565b9392505050565b600060208201905081810360008301526112a881611148565b9050919050565b600060208201905081810360008301526112c88161116b565b9050919050565b600060208201905081810360008301526112e88161118e565b9050919050565b60006020820190508181036000830152611308816111b1565b9050919050565b60006020820190508181036000830152611328816111d4565b9050919050565b600060208201905061134460008301846111f7565b92915050565b600082825260208201905092915050565b6000611366826113ef565b9150611371836113ef565b9250827fffffffffffffffffffffffffffffffffffffffffffffffffffffffffffffffff038211156113a6576113a56113f9565b5b828201905092915050565b60006113bc826113cf565b9050919050565b60008115159050919050565b600073ffffffffffffffffffffffffffffffffffffffff82169050919050565b6000819050919050565b7f4e487b7100000000000000000000000000000000000000000000000000000000600052601160045260246000fd5b7f696e646578206f7574206f662072616e67650000000000000000000000000000600082015250565b7f7072696365206e6f74206d657400000000000000000000000000000000000000600082015250565b7f73656c6c6572206e6f206c6f6e676572206f776e730000000000000000000000600082015250565b7f6e6f7420666f722073616c650000000000000000000000000000000000000000600082015250565b7f6e6f74206f776e65720000000000000000000000000000000000000000000000600082015250565b6114fe816113b1565b811461150957600080fd5b50565b611515816113ef565b811461152057600080fd5b5056fea264697066735822122059ba5e9834f49c0becfbe06ed390b177f292ef7563f787016e6d43d1c2944af664736f6c63430008020033",
  "linkReferences": {},
  "deployedLinkReferences": {}
}