{
  "_format": "hh-sol-artifact-1",
  "contractName": "TigerBasicNFT",
  "sourceName": "contracts/TigerBasicNFT.sol",
  "abi": [
    {
      "inputs": [
        {
          "internalType": "address",
          "name": "_artist",
          "type": "address"
        }
      ],
      "stateMutability": "nonpayable",
      "type": "constructor"
    },
    {
      "inputs": [
        {
          "internalType": "uint256",
          "name": "tigerIndex",
          "type": "uint256"
        }
      ],
      "name": "buyTiger",
      "outputs": [],
      "stateMutability": "payable",
      "type": "function"
    },
    {
      "inputs": [
        {
          "internalType": "uint256",
          "name": "tigerIndex",
          "type": "uint256"
        }
      ],
      "name": "getOwner",
      "outputs": [
        {
          "internalType": "address",
          "name": "",
          "type": "address"
        }
      ],
      "stateMutability": "view",
      "type": "function"
    },
    {
      "inputs": [
        {
          "internalType": "uint256",
          "name": "tigerIndex",
          "type": "uint256"
        }
      ],
      "name": "isForSale",
      "outputs": [
        {
          "internalType": "bool",
          "name": "",
          "type": "bool"
        },
        {
          "internalType": "uint256",
          "name": "",
          "type": "uint256"
        }
      ],
      "stateMutability": "view",
      "type": "function"
    },
    {
      "inputs": [
        {
          "internalType": "address",
          "name": "",
          "type": "address"
        }
      ],
      "name": "pendingWithdrawals",
      "outputs": [
        {
          "internalType": "uint256",
          "name": "",
          "type": "uint256"
        }
      ],
      "stateMutability": "view",
      "type": "function"
    },
    {
      "inputs": [
        {
          "internalType": "uint256",
          "name": "tigerIndex",
          "type": "uint256"
        },
        {
          "internalType": "uint256",
          "name": "minSalePriceInWei",
          "type": "uint256"
        }
      ],
      "name": "putUpForSale",
      "outputs": [],
      "stateMutability": "nonpayable",
      "type": "function"
    },
    {
      "inputs": [
        {
          "internalType": "uint256",
          "name": "tigerIndex",
          "type": "uint256"
        },
        {
          "internalType": "uint256",
          "name": "minSalePriceInWei",
          "type": "uint256"
        },
        {
          "internalType": "address",
          "name": "buyer",
          "type": "address"
        }
      ],
      "name": "putUpForSaleToAddress",
      "outputs": [],
      "stateMutability": "nonpayable",
      "type": "function"
    },
    {
      "inputs": [
        {
          "internalType": "uint256",
          "name": "",
          "type": "uint256"
        }
      ],
      "name": "tigersForSale",
      "outputs": [
        {
          "internalType": "bool",
          "name": "isForSale",
          "type": "bool"
        },
        {
          "internalType": "address",
          "name": "seller",
          "type": "address"
        },
        {
          "internalType": "uint256",
          "name": "price",
          "type": "uint256"
        },
        {
          "internalType": "address",
          "name": "onlySellTo",
          "type": "address"
        }
      ],
      "stateMutability": "view",
      "type": "function"
    },
    {
      "inputs": [],
      "name": "totalSupply",
      "outputs": [
        {
          "internalType": "uint256",
          "name": "",
          "type": "uint256"
        }
      ],
      "stateMutability": "view",
      "type": "function"
    },
    {
      "inputs": [
        {
          "internalType": "uint256",
          "name": "tigerIndex",
          "type": "uint256"
        }
      ],
      "name": "withdrawFromSale",
      "outputs": [],
      "stateMutability": "nonpayable",
      "type": "function"
    }
  ],
  "bytecode": "0x60806040523480156200001157600080fd5b506040516200168738038062001687833981810160405281019062000037919062000111565b600073ffffffffffffffffffffffffffffffffffffffff168173ffffffffffffffffffffffffffffffffffffffff1614156200007257600080fd5b80600160006101000a81548173ffffffffffffffffffffffffffffffffffffffff021916908373ffffffffffffffffffffffffffffffffffffffff160217905550336000806101000a81548173ffffffffffffffffffffffffffffffffffffffff021916908373ffffffffffffffffffffffffffffffffffffffff160217905550506200018b565b6000815190506200010b8162000171565b92915050565b6000602082840312156200012457600080fd5b60006200013484828501620000fa565b91505092915050565b60006200014a8262000151565b9050919050565b600073ffffffffffffffffffffffffffffffffffffffff82169050919050565b6200017c816200013d565b81146200018857600080fd5b50565b6114ec806200019b6000396000f3fe6080604052600436106100865760003560e01c80638861c2af116100595780638861c2af1461014657806390f83fa714610186578063a791c7ec146101a2578063c41a360a146101cb578063f3f437031461020857610086565b806318160ddd1461008b578063321a3e2f146100b65780635e96c694146100df5780638546d00214610108575b600080fd5b34801561009757600080fd5b506100a0610245565b6040516100ad91906112c2565b60405180910390f35b3480156100c257600080fd5b506100dd60048036038101906100d89190611009565b61024b565b005b3480156100eb57600080fd5b5061010660048036038101906101019190611032565b610429565b005b34801561011457600080fd5b5061012f600480360381019061012a9190611009565b610606565b60405161013d9291906111f9565b60405180910390f35b34801561015257600080fd5b5061016d60048036038101906101689190611009565b6107df565b60405161017d94939291906111b4565b60405180910390f35b6101a0600480360381019061019b9190611009565b61085c565b005b3480156101ae57600080fd5b506101c960048036038101906101c4919061106e565b610cdf565b005b3480156101d757600080fd5b506101f260048036038101906101ed9190611009565b610ebc565b6040516101ff9190611199565b60405180910390f35b34801561021457600080fd5b5061022f600480360381019061022a9190610fe0565b610f9e565b60405161023c91906112c2565b60405180910390f35b6103e881565b6103e8811061028f576040517f08c379a000000000000000000000000000000000000000000000000000000000815260040161028690611222565b60405180910390fd5b3373ffffffffffffffffffffffffffffffffffffffff166102af82610ebc565b73ffffffffffffffffffffffffffffffffffffffff1614610305576040517f08c379a00000000000000000000000000000000000000000000000000000000081526004016102fc906112a2565b60405180910390fd5b6040518060800160405280600015158152602001600073ffffffffffffffffffffffffffffffffffffffff16815260200160008152602001600073ffffffffffffffffffffffffffffffffffffffff168152506003600083815260200190815260200160002060008201518160000160006101000a81548160ff02191690831515021790555060208201518160000160016101000a81548173ffffffffffffffffffffffffffffffffffffffff021916908373ffffffffffffffffffffffffffffffffffffffff1602179055506040820151816001015560608201518160020160006101000a81548173ffffffffffffffffffffffffffffffffffffffff021916908373ffffffffffffffffffffffffffffffffffffffff16021790555090505050565b6103e8821061046d576040517f08c379a000000000000000000000000000000000000000000000000000000000815260040161046490611222565b60405180910390fd5b3373ffffffffffffffffffffffffffffffffffffffff1661048d83610ebc565b73ffffffffffffffffffffffffffffffffffffffff16146104e3576040517f08c379a00000000000000000000000000000000000000000000000000000000081526004016104da906112a2565b60405180910390fd5b60405180608001604052806001151581526020013373ffffffffffffffffffffffffffffffffffffffff168152602001828152602001600073ffffffffffffffffffffffffffffffffffffffff168152506003600084815260200190815260200160002060008201518160000160006101000a81548160ff02191690831515021790555060208201518160000160016101000a81548173ffffffffffffffffffffffffffffffffffffffff021916908373ffffffffffffffffffffffffffffffffffffffff1602179055506040820151816001015560608201518160020160006101000a81548173ffffffffffffffffffffffffffffffffffffffff021916908373ffffffffffffffffffffffffffffffffffffffff1602179055509050505050565b6000806103e8831061064d576040517f08c379a000000000000000000000000000000000000000000000000000000000815260040161064490611222565b60405180910390fd5b6000600360008581526020019081526020016000206040518060800160405290816000820160009054906101000a900460ff161515151581526020016000820160019054906101000a900473ffffffffffffffffffffffffffffffffffffffff1673ffffffffffffffffffffffffffffffffffffffff1673ffffffffffffffffffffffffffffffffffffffff168152602001600182015481526020016002820160009054906101000a900473ffffffffffffffffffffffffffffffffffffffff1673ffffffffffffffffffffffffffffffffffffffff1673ffffffffffffffffffffffffffffffffffffffff16815250509050806000015180156107bb5750600073ffffffffffffffffffffffffffffffffffffffff16816060015173ffffffffffffffffffffffffffffffffffffffff1614806107ba57503373ffffffffffffffffffffffffffffffffffffffff16816060015173ffffffffffffffffffffffffffffffffffffffff16145b5b156107d1576001816040015192509250506107da565b60008092509250505b915091565b60036020528060005260406000206000915090508060000160009054906101000a900460ff16908060000160019054906101000a900473ffffffffffffffffffffffffffffffffffffffff16908060010154908060020160009054906101000a900473ffffffffffffffffffffffffffffffffffffffff16905084565b6103e881106108a0576040517f08c379a000000000000000000000000000000000000000000000000000000000815260040161089790611222565b60405180910390fd5b6000600360008381526020019081526020016000206040518060800160405290816000820160009054906101000a900460ff161515151581526020016000820160019054906101000a900473ffffffffffffffffffffffffffffffffffffffff1673ffffffffffffffffffffffffffffffffffffffff1673ffffffffffffffffffffffffffffffffffffffff168152602001600182015481526020016002820160009054906101000a900473ffffffffffffffffffffffffffffffffffffffff1673ffffffffffffffffffffffffffffffffffffffff1673ffffffffffffffffffffffffffffffffffffffff1681525050905080600001518015610a0e5750600073ffffffffffffffffffffffffffffffffffffffff16816060015173ffffffffffffffffffffffffffffffffffffffff161480610a0d57503373ffffffffffffffffffffffffffffffffffffffff16816060015173ffffffffffffffffffffffffffffffffffffffff16145b5b610a4d576040517f08c379a0000000000000000000000000000000000000000000000000000000008152600401610a4490611282565b60405180910390fd5b8060400151341015610a94576040517f08c379a0000000000000000000000000000000000000000000000000000000008152600401610a8b90611242565b60405180910390fd5b610a9d82610ebc565b73ffffffffffffffffffffffffffffffffffffffff16816020015173ffffffffffffffffffffffffffffffffffffffff1614610b0e576040517f08c379a0000000000000000000000000000000000000000000000000000000008152600401610b0590611262565b60405180910390fd5b336002600084815260200190815260200160002060006101000a81548173ffffffffffffffffffffffffffffffffffffffff021916908373ffffffffffffffffffffffffffffffffffffffff1602179055506040518060800160405280600015158152602001600073ffffffffffffffffffffffffffffffffffffffff16815260200160008152602001600073ffffffffffffffffffffffffffffffffffffffff168152506003600084815260200190815260200160002060008201518160000160006101000a81548160ff02191690831515021790555060208201518160000160016101000a81548173ffffffffffffffffffffffffffffffffffffffff021916908373ffffffffffffffffffffffffffffffffffffffff1602179055506040820151816001015560608201518160020160006101000a81548173ffffffffffffffffffffffffffffffffffffffff021916908373ffffffffffffffffffffffffffffffffffffffff1602179055509050503460046000836020015173ffffffffffffffffffffffffffffffffffffffff1673ffffffffffffffffffffffffffffffffffffffff1681526020019081526020016000206000828254610cd491906112ee565b925050819055505050565b6103e88310610d23576040517f08c379a0000000000000000000000000000000000000000000000000000000008152600401610d1a90611222565b60405180910390fd5b3373ffffffffffffffffffffffffffffffffffffffff16610d4384610ebc565b73ffffffffffffffffffffffffffffffffffffffff1614610d99576040517f08c379a0000000000000000000000000000000000000000000000000000000008152600401610d90906112a2565b60405180910390fd5b60405180608001604052806001151581526020013373ffffffffffffffffffffffffffffffffffffffff1681526020018381526020018273ffffffffffffffffffffffffffffffffffffffff168152506003600085815260200190815260200160002060008201518160000160006101000a81548160ff02191690831515021790555060208201518160000160016101000a81548173ffffffffffffffffffffffffffffffffffffffff021916908373ffffffffffffffffffffffffffffffffffffffff1602179055506040820151816001015560608201518160020160006101000a81548173ffffffffffffffffffffffffffffffffffffffff021916908373ffffffffffffffffffffffffffffffffffffffff160217905550905050505050565b60006103e88210610f02576040517f08c379a0000000000000000000000000000000000000000000000000000000008152600401610ef990611222565b60405180910390fd5b60006002600084815260200190815260200160002060009054906101000a900473ffffffffffffffffffffffffffffffffffffffff169050600073ffffffffffffffffffffffffffffffffffffffff168173ffffffffffffffffffffffffffffffffffffffff161415610f9557600160009054906101000a900473ffffffffffffffffffffffffffffffffffffffff1690505b80915050919050565b60046020528060005260406000206000915090505481565b600081359050610fc581611488565b92915050565b600081359050610fda8161149f565b92915050565b600060208284031215610ff257600080fd5b600061100084828501610fb6565b91505092915050565b60006020828403121561101b57600080fd5b600061102984828501610fcb565b91505092915050565b6000806040838503121561104557600080fd5b600061105385828601610fcb565b925050602061106485828601610fcb565b9150509250929050565b60008060006060848603121561108357600080fd5b600061109186828701610fcb565b93505060206110a286828701610fcb565b92505060406110b386828701610fb6565b9150509250925092565b6110c681611344565b82525050565b6110d581611356565b82525050565b60006110e86012836112dd565b91506110f3826113bb565b602082019050919050565b600061110b600d836112dd565b9150611116826113e4565b602082019050919050565b600061112e6015836112dd565b91506111398261140d565b602082019050919050565b6000611151600c836112dd565b915061115c82611436565b602082019050919050565b60006111746009836112dd565b915061117f8261145f565b602082019050919050565b61119381611382565b82525050565b60006020820190506111ae60008301846110bd565b92915050565b60006080820190506111c960008301876110cc565b6111d660208301866110bd565b6111e3604083018561118a565b6111f060608301846110bd565b95945050505050565b600060408201905061120e60008301856110cc565b61121b602083018461118a565b9392505050565b6000602082019050818103600083015261123b816110db565b9050919050565b6000602082019050818103600083015261125b816110fe565b9050919050565b6000602082019050818103600083015261127b81611121565b9050919050565b6000602082019050818103600083015261129b81611144565b9050919050565b600060208201905081810360008301526112bb81611167565b9050919050565b60006020820190506112d7600083018461118a565b92915050565b600082825260208201905092915050565b60006112f982611382565b915061130483611382565b9250827fffffffffffffffffffffffffffffffffffffffffffffffffffffffffffffffff038211156113395761133861138c565b5b828201905092915050565b600061134f82611362565b9050919050565b60008115159050919050565b600073ffffffffffffffffffffffffffffffffffffffff82169050919050565b6000819050919050565b7f4e487b7100000000000000000000000000000000000000000000000000000000600052601160045260246000fd5b7f696e646578206f7574206f662072616e67650000000000000000000000000000600082015250565b7f7072696365206e6f74206d657400000000000000000000000000000000000000600082015250565b7f73656c6c6572206e6f206c6f6e676572206f776e730000000000000000000000600082015250565b7f6e6f7420666f722073616c650000000000000000000000000000000000000000600082015250565b7f6e6f74206f776e65720000000000000000000000000000000000000000000000600082015250565b61149181611344565b811461149c57600080fd5b50565b6114a881611382565b81146114b357600080fd5b5056fea26469706673582212201eab52e9bf913dd6234b4c0f7d8fa1ff6232fecd52284c38190f67f70f5cf4b064736f6c63430008020033",
  "linkReferences": {},
  "deployedLinkReferences": {}
}