{
  "_format": "hh-sol-artifact-1",
  "contractName": "TigerNFT",
  "sourceName": "contracts/TigerNFT.sol",
  "abi": [
    {
      "inputs": [
        {
          "internalType": "address",
          "name": "_artist",
          "type": "address"
        },
        {
          "internalType": "uint256",
          "name": "_startingPrice",
          "type": "uint256"
        }
      ],
      "stateMutability": "nonpayable",
      "type": "constructor"
    },
    {
      "inputs": [
        {
          "internalType": "uint256",
          "name": "tigerIndex",
          "type": "uint256"
        }
      ],
      "name": "buyTiger",
      "outputs": [],
      "stateMutability": "payable",
      "type": "function"
    },
    {
      "inputs": [
        {
          "internalType": "uint256",
          "name": "tigerIndex",
          "type": "uint256"
        }
      ],
      "name": "getOwner",
      "outputs": [
        {
          "internalType": "address",
          "name": "",
          "type": "address"
        }
      ],
      "stateMutability": "view",
      "type": "function"
    },
    {
      "inputs": [
        {
          "internalType": "uint256",
          "name": "tigerIndex",
          "type": "uint256"
        }
      ],
      "name": "isForSale",
      "outputs": [
        {
          "internalType": "bool",
          "name": "",
          "type": "bool"
        },
        {
          "internalType": "uint256",
          "name": "",
          "type": "uint256"
        }
      ],
      "stateMutability": "view",
      "type": "function"
    },
    {
      "inputs": [
        {
          "internalType": "address",
          "name": "",
          "type": "address"
        }
      ],
      "name": "pendingWithdrawals",
      "outputs": [
        {
          "internalType": "uint256",
          "name": "",
          "type": "uint256"
        }
      ],
      "stateMutability": "view",
      "type": "function"
    },
    {
      "inputs": [
        {
          "internalType": "uint256",
          "name": "tigerIndex",
          "type": "uint256"
        },
        {
          "internalType": "uint256",
          "name": "minSalePriceInWei",
          "type": "uint256"
        }
      ],
      "name": "putUpForSale",
      "outputs": [],
      "stateMutability": "nonpayable",
      "type": "function"
    },
    {
      "inputs": [
        {
          "internalType": "uint256",
          "name": "tigerIndex",
          "type": "uint256"
        },
        {
          "internalType": "uint256",
          "name": "minSalePriceInWei",
          "type": "uint256"
        },
        {
          "internalType": "address",
          "name": "buyer",
          "type": "address"
        }
      ],
      "name": "putUpForSaleToAddress",
      "outputs": [],
      "stateMutability": "nonpayable",
      "type": "function"
    },
    {
      "inputs": [
        {
          "internalType": "uint256",
          "name": "",
          "type": "uint256"
        }
      ],
      "name": "tigersForSale",
      "outputs": [
        {
          "internalType": "bool",
          "name": "isForSale",
          "type": "bool"
        },
        {
          "internalType": "address",
          "name": "seller",
          "type": "address"
        },
        {
          "internalType": "uint256",
          "name": "price",
          "type": "uint256"
        },
        {
          "internalType": "address",
          "name": "onlySellTo",
          "type": "address"
        }
      ],
      "stateMutability": "view",
      "type": "function"
    },
    {
      "inputs": [],
      "name": "totalSupply",
      "outputs": [
        {
          "internalType": "uint256",
          "name": "",
          "type": "uint256"
        }
      ],
      "stateMutability": "view",
      "type": "function"
    },
    {
      "inputs": [
        {
          "internalType": "uint256",
          "name": "tigerIndex",
          "type": "uint256"
        }
      ],
      "name": "withdrawFromSale",
      "outputs": [],
      "stateMutability": "nonpayable",
      "type": "function"
    },
    {
      "inputs": [],
      "name": "withdrawFunds",
      "outputs": [],
      "stateMutability": "nonpayable",
      "type": "function"
    }
  ],
  "bytecode": "0x60806040523480156200001157600080fd5b5060405162001bc238038062001bc2833981810160405281019062000037919062000130565b600073ffffffffffffffffffffffffffffffffffffffff168273ffffffffffffffffffffffffffffffffffffffff1614156200007257600080fd5b81600160006101000a81548173ffffffffffffffffffffffffffffffffffffffff021916908373ffffffffffffffffffffffffffffffffffffffff16021790555080600281905550336000806101000a81548173ffffffffffffffffffffffffffffffffffffffff021916908373ffffffffffffffffffffffffffffffffffffffff1602179055505050620001e3565b6000815190506200011381620001af565b92915050565b6000815190506200012a81620001c9565b92915050565b600080604083850312156200014457600080fd5b6000620001548582860162000102565b9250506020620001678582860162000119565b9150509250929050565b60006200017e8262000185565b9050919050565b600073ffffffffffffffffffffffffffffffffffffffff82169050919050565b6000819050919050565b620001ba8162000171565b8114620001c657600080fd5b50565b620001d481620001a5565b8114620001e057600080fd5b50565b6119cf80620001f36000396000f3fe6080604052600436106100915760003560e01c80638861c2af116100595780638861c2af1461016857806390f83fa7146101a8578063a791c7ec146101c4578063c41a360a146101ed578063f3f437031461022a57610091565b806318160ddd1461009657806324600fc3146100c1578063321a3e2f146100d85780635e96c694146101015780638546d0021461012a575b600080fd5b3480156100a257600080fd5b506100ab610267565b6040516100b891906116b1565b60405180910390f35b3480156100cd57600080fd5b506100d661026c565b005b3480156100e457600080fd5b506100ff60048036038101906100fa919061133a565b6103ec565b005b34801561010d57600080fd5b5061012860048036038101906101239190611363565b6105c9565b005b34801561013657600080fd5b50610151600480360381019061014c919061133a565b6107a5565b60405161015f9291906115a8565b60405180910390f35b34801561017457600080fd5b5061018f600480360381019061018a919061133a565b610897565b60405161019f9493929190611563565b60405180910390f35b6101c260048036038101906101bd919061133a565b610914565b005b3480156101d057600080fd5b506101eb60048036038101906101e6919061139f565b610dd9565b005b3480156101f957600080fd5b50610214600480360381019061020f919061133a565b610fb5565b6040516102219190611548565b60405180910390f35b34801561023657600080fd5b50610251600480360381019061024c9190611311565b611096565b60405161025e91906116b1565b60405180910390f35b606481565b6000600560003373ffffffffffffffffffffffffffffffffffffffff1673ffffffffffffffffffffffffffffffffffffffff1681526020019081526020016000205490506402540be40081116102f7576040517f08c379a00000000000000000000000000000000000000000000000000000000081526004016102ee906115d1565b60405180910390fd5b6000600560003373ffffffffffffffffffffffffffffffffffffffff1673ffffffffffffffffffffffffffffffffffffffff1681526020019081526020016000208190555060003373ffffffffffffffffffffffffffffffffffffffff168260405161036290611533565b60006040518083038185875af1925050503d806000811461039f576040519150601f19603f3d011682016040523d82523d6000602084013e6103a4565b606091505b50509050806103e8576040517f08c379a00000000000000000000000000000000000000000000000000000000081526004016103df90611671565b60405180910390fd5b5050565b6064811061042f576040517f08c379a0000000000000000000000000000000000000000000000000000000008152600401610426906115f1565b60405180910390fd5b3373ffffffffffffffffffffffffffffffffffffffff1661044f82610fb5565b73ffffffffffffffffffffffffffffffffffffffff16146104a5576040517f08c379a000000000000000000000000000000000000000000000000000000000815260040161049c90611691565b60405180910390fd5b6040518060800160405280600015158152602001600073ffffffffffffffffffffffffffffffffffffffff16815260200160008152602001600073ffffffffffffffffffffffffffffffffffffffff168152506004600083815260200190815260200160002060008201518160000160006101000a81548160ff02191690831515021790555060208201518160000160016101000a81548173ffffffffffffffffffffffffffffffffffffffff021916908373ffffffffffffffffffffffffffffffffffffffff1602179055506040820151816001015560608201518160020160006101000a81548173ffffffffffffffffffffffffffffffffffffffff021916908373ffffffffffffffffffffffffffffffffffffffff16021790555090505050565b6064821061060c576040517f08c379a0000000000000000000000000000000000000000000000000000000008152600401610603906115f1565b60405180910390fd5b3373ffffffffffffffffffffffffffffffffffffffff1661062c83610fb5565b73ffffffffffffffffffffffffffffffffffffffff1614610682576040517f08c379a000000000000000000000000000000000000000000000000000000000815260040161067990611691565b60405180910390fd5b60405180608001604052806001151581526020013373ffffffffffffffffffffffffffffffffffffffff168152602001828152602001600073ffffffffffffffffffffffffffffffffffffffff168152506004600084815260200190815260200160002060008201518160000160006101000a81548160ff02191690831515021790555060208201518160000160016101000a81548173ffffffffffffffffffffffffffffffffffffffff021916908373ffffffffffffffffffffffffffffffffffffffff1602179055506040820151816001015560608201518160020160006101000a81548173ffffffffffffffffffffffffffffffffffffffff021916908373ffffffffffffffffffffffffffffffffffffffff1602179055509050505050565b600080606483106107eb576040517f08c379a00000000000000000000000000000000000000000000000000000000081526004016107e2906115f1565b60405180910390fd5b60006107f6846110ae565b9050806000015180156108735750600073ffffffffffffffffffffffffffffffffffffffff16816060015173ffffffffffffffffffffffffffffffffffffffff16148061087257503373ffffffffffffffffffffffffffffffffffffffff16816060015173ffffffffffffffffffffffffffffffffffffffff16145b5b1561088957600181604001519250925050610892565b60008092509250505b915091565b60046020528060005260406000206000915090508060000160009054906101000a900460ff16908060000160019054906101000a900473ffffffffffffffffffffffffffffffffffffffff16908060010154908060020160009054906101000a900473ffffffffffffffffffffffffffffffffffffffff16905084565b60648110610957576040517f08c379a000000000000000000000000000000000000000000000000000000000815260040161094e906115f1565b60405180910390fd5b6000610962826110ae565b9050806000015180156109df5750600073ffffffffffffffffffffffffffffffffffffffff16816060015173ffffffffffffffffffffffffffffffffffffffff1614806109de57503373ffffffffffffffffffffffffffffffffffffffff16816060015173ffffffffffffffffffffffffffffffffffffffff16145b5b610a1e576040517f08c379a0000000000000000000000000000000000000000000000000000000008152600401610a1590611651565b60405180910390fd5b8060400151341015610a65576040517f08c379a0000000000000000000000000000000000000000000000000000000008152600401610a5c90611611565b60405180910390fd5b610a6e82610fb5565b73ffffffffffffffffffffffffffffffffffffffff16816020015173ffffffffffffffffffffffffffffffffffffffff1614610adf576040517f08c379a0000000000000000000000000000000000000000000000000000000008152600401610ad690611631565b60405180910390fd5b336003600084815260200190815260200160002060006101000a81548173ffffffffffffffffffffffffffffffffffffffff021916908373ffffffffffffffffffffffffffffffffffffffff1602179055506040518060800160405280600015158152602001600073ffffffffffffffffffffffffffffffffffffffff16815260200160008152602001600073ffffffffffffffffffffffffffffffffffffffff168152506004600084815260200190815260200160002060008201518160000160006101000a81548160ff02191690831515021790555060208201518160000160016101000a81548173ffffffffffffffffffffffffffffffffffffffff021916908373ffffffffffffffffffffffffffffffffffffffff1602179055506040820151816001015560608201518160020160006101000a81548173ffffffffffffffffffffffffffffffffffffffff021916908373ffffffffffffffffffffffffffffffffffffffff1602179055509050506000606434610c61919061173e565b905080600560008060009054906101000a900473ffffffffffffffffffffffffffffffffffffffff1673ffffffffffffffffffffffffffffffffffffffff1673ffffffffffffffffffffffffffffffffffffffff1681526020019081526020016000206000828254610cd391906116e8565b925050819055506000601434610ce9919061173e565b90508060056000600160009054906101000a900473ffffffffffffffffffffffffffffffffffffffff1673ffffffffffffffffffffffffffffffffffffffff1673ffffffffffffffffffffffffffffffffffffffff1681526020019081526020016000206000828254610d5c91906116e8565b925050819055508082610d6f91906116e8565b34610d7a919061176f565b60056000856020015173ffffffffffffffffffffffffffffffffffffffff1673ffffffffffffffffffffffffffffffffffffffff1681526020019081526020016000206000828254610dcc91906116e8565b9250508190555050505050565b60648310610e1c576040517f08c379a0000000000000000000000000000000000000000000000000000000008152600401610e13906115f1565b60405180910390fd5b3373ffffffffffffffffffffffffffffffffffffffff16610e3c84610fb5565b73ffffffffffffffffffffffffffffffffffffffff1614610e92576040517f08c379a0000000000000000000000000000000000000000000000000000000008152600401610e8990611691565b60405180910390fd5b60405180608001604052806001151581526020013373ffffffffffffffffffffffffffffffffffffffff1681526020018381526020018273ffffffffffffffffffffffffffffffffffffffff168152506004600085815260200190815260200160002060008201518160000160006101000a81548160ff02191690831515021790555060208201518160000160016101000a81548173ffffffffffffffffffffffffffffffffffffffff021916908373ffffffffffffffffffffffffffffffffffffffff1602179055506040820151816001015560608201518160020160006101000a81548173ffffffffffffffffffffffffffffffffffffffff021916908373ffffffffffffffffffffffffffffffffffffffff160217905550905050505050565b600060648210610ffa576040517f08c379a0000000000000000000000000000000000000000000000000000000008152600401610ff1906115f1565b60405180910390fd5b60006003600084815260200190815260200160002060009054906101000a900473ffffffffffffffffffffffffffffffffffffffff169050600073ffffffffffffffffffffffffffffffffffffffff168173ffffffffffffffffffffffffffffffffffffffff16141561108d57600160009054906101000a900473ffffffffffffffffffffffffffffffffffffffff1690505b80915050919050565b60056020528060005260406000206000915090505481565b6110b6611291565b600073ffffffffffffffffffffffffffffffffffffffff166003600084815260200190815260200160002060009054906101000a900473ffffffffffffffffffffffffffffffffffffffff1673ffffffffffffffffffffffffffffffffffffffff16141561119a576040518060800160405280600115158152602001600160009054906101000a900473ffffffffffffffffffffffffffffffffffffffff1673ffffffffffffffffffffffffffffffffffffffff1681526020016002548152602001600073ffffffffffffffffffffffffffffffffffffffff16815250905061128c565b600460008381526020019081526020016000206040518060800160405290816000820160009054906101000a900460ff161515151581526020016000820160019054906101000a900473ffffffffffffffffffffffffffffffffffffffff1673ffffffffffffffffffffffffffffffffffffffff1673ffffffffffffffffffffffffffffffffffffffff168152602001600182015481526020016002820160009054906101000a900473ffffffffffffffffffffffffffffffffffffffff1673ffffffffffffffffffffffffffffffffffffffff1673ffffffffffffffffffffffffffffffffffffffff168152505090505b919050565b6040518060800160405280600015158152602001600073ffffffffffffffffffffffffffffffffffffffff16815260200160008152602001600073ffffffffffffffffffffffffffffffffffffffff1681525090565b6000813590506112f68161196b565b92915050565b60008135905061130b81611982565b92915050565b60006020828403121561132357600080fd5b6000611331848285016112e7565b91505092915050565b60006020828403121561134c57600080fd5b600061135a848285016112fc565b91505092915050565b6000806040838503121561137657600080fd5b6000611384858286016112fc565b9250506020611395858286016112fc565b9150509250929050565b6000806000606084860312156113b457600080fd5b60006113c2868287016112fc565b93505060206113d3868287016112fc565b92505060406113e4868287016112e7565b9150509250925092565b6113f7816117a3565b82525050565b611406816117b5565b82525050565b6000611419601c836116d7565b915061142482611849565b602082019050919050565b600061143c6012836116d7565b915061144782611872565b602082019050919050565b600061145f600d836116d7565b915061146a8261189b565b602082019050919050565b60006114826015836116d7565b915061148d826118c4565b602082019050919050565b60006114a56000836116cc565b91506114b0826118ed565b600082019050919050565b60006114c8600c836116d7565b91506114d3826118f0565b602082019050919050565b60006114eb600f836116d7565b91506114f682611919565b602082019050919050565b600061150e6009836116d7565b915061151982611942565b602082019050919050565b61152d816117e1565b82525050565b600061153e82611498565b9150819050919050565b600060208201905061155d60008301846113ee565b92915050565b600060808201905061157860008301876113fd565b61158560208301866113ee565b6115926040830185611524565b61159f60608301846113ee565b95945050505050565b60006040820190506115bd60008301856113fd565b6115ca6020830184611524565b9392505050565b600060208201905081810360008301526115ea8161140c565b9050919050565b6000602082019050818103600083015261160a8161142f565b9050919050565b6000602082019050818103600083015261162a81611452565b9050919050565b6000602082019050818103600083015261164a81611475565b9050919050565b6000602082019050818103600083015261166a816114bb565b9050919050565b6000602082019050818103600083015261168a816114de565b9050919050565b600060208201905081810360008301526116aa81611501565b9050919050565b60006020820190506116c66000830184611524565b92915050565b600081905092915050565b600082825260208201905092915050565b60006116f3826117e1565b91506116fe836117e1565b9250827fffffffffffffffffffffffffffffffffffffffffffffffffffffffffffffffff03821115611733576117326117eb565b5b828201905092915050565b6000611749826117e1565b9150611754836117e1565b9250826117645761176361181a565b5b828204905092915050565b600061177a826117e1565b9150611785836117e1565b925082821015611798576117976117eb565b5b828203905092915050565b60006117ae826117c1565b9050919050565b60008115159050919050565b600073ffffffffffffffffffffffffffffffffffffffff82169050919050565b6000819050919050565b7f4e487b7100000000000000000000000000000000000000000000000000000000600052601160045260246000fd5b7f4e487b7100000000000000000000000000000000000000000000000000000000600052601260045260246000fd5b7f696e73756666696369656e7420617661696c61626c652066756e647300000000600082015250565b7f696e646578206f7574206f662072616e67650000000000000000000000000000600082015250565b7f7072696365206e6f74206d657400000000000000000000000000000000000000600082015250565b7f73656c6c6572206e6f206c6f6e676572206f776e730000000000000000000000600082015250565b50565b7f6e6f7420666f722073616c650000000000000000000000000000000000000000600082015250565b7f7472616e73666572206661696c65640000000000000000000000000000000000600082015250565b7f6e6f74206f776e65720000000000000000000000000000000000000000000000600082015250565b611974816117a3565b811461197f57600080fd5b50565b61198b816117e1565b811461199657600080fd5b5056fea2646970667358221220ebbcff87b1d5091e88fe2ec59fe8e9239189e1e808202682a9aaf1f79037ec9c64736f6c63430008020033",
  "linkReferences": {},
  "deployedLinkReferences": {}
}