{
    "_format": "hh-sol-artifact-1",
    "contractName": "TigerNFT",
    "sourceName": "contracts/TigerNFT.sol",
    "abi": [
        {
            "inputs": [
                {
                    "internalType": "address",
                    "name": "_artist",
                    "type": "address"
                }
            ],
            "stateMutability": "nonpayable",
            "type": "constructor"
        },
        {
            "inputs": [
                {
                    "internalType": "uint256",
                    "name": "tigerIndex",
                    "type": "uint256"
                }
            ],
            "name": "buyTiger",
            "outputs": [],
            "stateMutability": "payable",
            "type": "function"
        },
        {
            "inputs": [
                {
                    "internalType": "uint256",
                    "name": "tigerIndex",
                    "type": "uint256"
                }
            ],
            "name": "getOwner",
            "outputs": [
                {
                    "internalType": "address",
                    "name": "",
                    "type": "address"
                }
            ],
            "stateMutability": "view",
            "type": "function"
        },
        {
            "inputs": [
                {
                    "internalType": "uint256",
                    "name": "tigerIndex",
                    "type": "uint256"
                }
            ],
            "name": "isForSale",
            "outputs": [
                {
                    "internalType": "bool",
                    "name": "",
                    "type": "bool"
                },
                {
                    "internalType": "uint256",
                    "name": "",
                    "type": "uint256"
                }
            ],
            "stateMutability": "view",
            "type": "function"
        },
        {
            "inputs": [
                {
                    "internalType": "address",
                    "name": "",
                    "type": "address"
                }
            ],
            "name": "pendingWithdrawals",
            "outputs": [
                {
                    "internalType": "uint256",
                    "name": "",
                    "type": "uint256"
                }
            ],
            "stateMutability": "view",
            "type": "function"
        },
        {
            "inputs": [
                {
                    "internalType": "uint256",
                    "name": "tigerIndex",
                    "type": "uint256"
                },
                {
                    "internalType": "uint256",
                    "name": "minSalePriceInWei",
                    "type": "uint256"
                }
            ],
            "name": "putUpForSale",
            "outputs": [],
            "stateMutability": "nonpayable",
            "type": "function"
        },
        {
            "inputs": [
                {
                    "internalType": "uint256",
                    "name": "tigerIndex",
                    "type": "uint256"
                },
                {
                    "internalType": "uint256",
                    "name": "minSalePriceInWei",
                    "type": "uint256"
                },
                {
                    "internalType": "address",
                    "name": "buyer",
                    "type": "address"
                }
            ],
            "name": "putUpForSaleToAddress",
            "outputs": [],
            "stateMutability": "nonpayable",
            "type": "function"
        },
        {
            "inputs": [
                {
                    "internalType": "uint256",
                    "name": "",
                    "type": "uint256"
                }
            ],
            "name": "tigersForSale",
            "outputs": [
                {
                    "internalType": "bool",
                    "name": "isForSale",
                    "type": "bool"
                },
                {
                    "internalType": "address",
                    "name": "seller",
                    "type": "address"
                },
                {
                    "internalType": "uint256",
                    "name": "price",
                    "type": "uint256"
                },
                {
                    "internalType": "address",
                    "name": "onlySellTo",
                    "type": "address"
                }
            ],
            "stateMutability": "view",
            "type": "function"
        },
        {
            "inputs": [],
            "name": "totalSupply",
            "outputs": [
                {
                    "internalType": "uint256",
                    "name": "",
                    "type": "uint256"
                }
            ],
            "stateMutability": "view",
            "type": "function"
        },
        {
            "inputs": [
                {
                    "internalType": "uint256",
                    "name": "tigerIndex",
                    "type": "uint256"
                }
            ],
            "name": "withdrawFromSale",
            "outputs": [],
            "stateMutability": "nonpayable",
            "type": "function"
        },
        {
            "inputs": [],
            "name": "withdrawFunds",
            "outputs": [],
            "stateMutability": "nonpayable",
            "type": "function"
        }
    ],
    "bytecode": "0x60806040523480156200001157600080fd5b5060405162001b0438038062001b04833981810160405281019062000037919062000111565b600073ffffffffffffffffffffffffffffffffffffffff168173ffffffffffffffffffffffffffffffffffffffff1614156200007257600080fd5b80600160006101000a81548173ffffffffffffffffffffffffffffffffffffffff021916908373ffffffffffffffffffffffffffffffffffffffff160217905550336000806101000a81548173ffffffffffffffffffffffffffffffffffffffff021916908373ffffffffffffffffffffffffffffffffffffffff160217905550506200018b565b6000815190506200010b8162000171565b92915050565b6000602082840312156200012457600080fd5b60006200013484828501620000fa565b91505092915050565b60006200014a8262000151565b9050919050565b600073ffffffffffffffffffffffffffffffffffffffff82169050919050565b6200017c816200013d565b81146200018857600080fd5b50565b611969806200019b6000396000f3fe6080604052600436106100915760003560e01c80638861c2af116100595780638861c2af1461016857806390f83fa7146101a8578063a791c7ec146101c4578063c41a360a146101ed578063f3f437031461022a57610091565b806318160ddd1461009657806324600fc3146100c1578063321a3e2f146100d85780635e96c694146101015780638546d0021461012a575b600080fd5b3480156100a257600080fd5b506100ab610267565b6040516100b8919061164b565b60405180910390f35b3480156100cd57600080fd5b506100d661026d565b005b3480156100e457600080fd5b506100ff60048036038101906100fa91906112d4565b6103ed565b005b34801561010d57600080fd5b50610128600480360381019061012391906112fd565b6105cb565b005b34801561013657600080fd5b50610151600480360381019061014c91906112d4565b6107a8565b60405161015f929190611542565b60405180910390f35b34801561017457600080fd5b5061018f600480360381019061018a91906112d4565b610981565b60405161019f94939291906114fd565b60405180910390f35b6101c260048036038101906101bd91906112d4565b6109fe565b005b3480156101d057600080fd5b506101eb60048036038101906101e69190611339565b610faa565b005b3480156101f957600080fd5b50610214600480360381019061020f91906112d4565b611187565b60405161022191906114e2565b60405180910390f35b34801561023657600080fd5b50610251600480360381019061024c91906112ab565b611269565b60405161025e919061164b565b60405180910390f35b6103e881565b6000600460003373ffffffffffffffffffffffffffffffffffffffff1673ffffffffffffffffffffffffffffffffffffffff1681526020019081526020016000205490506402540be40081116102f8576040517f08c379a00000000000000000000000000000000000000000000000000000000081526004016102ef9061156b565b60405180910390fd5b6000600460003373ffffffffffffffffffffffffffffffffffffffff1673ffffffffffffffffffffffffffffffffffffffff1681526020019081526020016000208190555060003373ffffffffffffffffffffffffffffffffffffffff1682604051610363906114cd565b60006040518083038185875af1925050503d80600081146103a0576040519150601f19603f3d011682016040523d82523d6000602084013e6103a5565b606091505b50509050806103e9576040517f08c379a00000000000000000000000000000000000000000000000000000000081526004016103e09061160b565b60405180910390fd5b5050565b6103e88110610431576040517f08c379a00000000000000000000000000000000000000000000000000000000081526004016104289061158b565b60405180910390fd5b3373ffffffffffffffffffffffffffffffffffffffff1661045182611187565b73ffffffffffffffffffffffffffffffffffffffff16146104a7576040517f08c379a000000000000000000000000000000000000000000000000000000000815260040161049e9061162b565b60405180910390fd5b6040518060800160405280600015158152602001600073ffffffffffffffffffffffffffffffffffffffff16815260200160008152602001600073ffffffffffffffffffffffffffffffffffffffff168152506003600083815260200190815260200160002060008201518160000160006101000a81548160ff02191690831515021790555060208201518160000160016101000a81548173ffffffffffffffffffffffffffffffffffffffff021916908373ffffffffffffffffffffffffffffffffffffffff1602179055506040820151816001015560608201518160020160006101000a81548173ffffffffffffffffffffffffffffffffffffffff021916908373ffffffffffffffffffffffffffffffffffffffff16021790555090505050565b6103e8821061060f576040517f08c379a00000000000000000000000000000000000000000000000000000000081526004016106069061158b565b60405180910390fd5b3373ffffffffffffffffffffffffffffffffffffffff1661062f83611187565b73ffffffffffffffffffffffffffffffffffffffff1614610685576040517f08c379a000000000000000000000000000000000000000000000000000000000815260040161067c9061162b565b60405180910390fd5b60405180608001604052806001151581526020013373ffffffffffffffffffffffffffffffffffffffff168152602001828152602001600073ffffffffffffffffffffffffffffffffffffffff168152506003600084815260200190815260200160002060008201518160000160006101000a81548160ff02191690831515021790555060208201518160000160016101000a81548173ffffffffffffffffffffffffffffffffffffffff021916908373ffffffffffffffffffffffffffffffffffffffff1602179055506040820151816001015560608201518160020160006101000a81548173ffffffffffffffffffffffffffffffffffffffff021916908373ffffffffffffffffffffffffffffffffffffffff1602179055509050505050565b6000806103e883106107ef576040517f08c379a00000000000000000000000000000000000000000000000000000000081526004016107e69061158b565b60405180910390fd5b6000600360008581526020019081526020016000206040518060800160405290816000820160009054906101000a900460ff161515151581526020016000820160019054906101000a900473ffffffffffffffffffffffffffffffffffffffff1673ffffffffffffffffffffffffffffffffffffffff1673ffffffffffffffffffffffffffffffffffffffff168152602001600182015481526020016002820160009054906101000a900473ffffffffffffffffffffffffffffffffffffffff1673ffffffffffffffffffffffffffffffffffffffff1673ffffffffffffffffffffffffffffffffffffffff168152505090508060000151801561095d5750600073ffffffffffffffffffffffffffffffffffffffff16816060015173ffffffffffffffffffffffffffffffffffffffff16148061095c57503373ffffffffffffffffffffffffffffffffffffffff16816060015173ffffffffffffffffffffffffffffffffffffffff16145b5b156109735760018160400151925092505061097c565b60008092509250505b915091565b60036020528060005260406000206000915090508060000160009054906101000a900460ff16908060000160019054906101000a900473ffffffffffffffffffffffffffffffffffffffff16908060010154908060020160009054906101000a900473ffffffffffffffffffffffffffffffffffffffff16905084565b6103e88110610a42576040517f08c379a0000000000000000000000000000000000000000000000000000000008152600401610a399061158b565b60405180910390fd5b6000600360008381526020019081526020016000206040518060800160405290816000820160009054906101000a900460ff161515151581526020016000820160019054906101000a900473ffffffffffffffffffffffffffffffffffffffff1673ffffffffffffffffffffffffffffffffffffffff1673ffffffffffffffffffffffffffffffffffffffff168152602001600182015481526020016002820160009054906101000a900473ffffffffffffffffffffffffffffffffffffffff1673ffffffffffffffffffffffffffffffffffffffff1673ffffffffffffffffffffffffffffffffffffffff1681525050905080600001518015610bb05750600073ffffffffffffffffffffffffffffffffffffffff16816060015173ffffffffffffffffffffffffffffffffffffffff161480610baf57503373ffffffffffffffffffffffffffffffffffffffff16816060015173ffffffffffffffffffffffffffffffffffffffff16145b5b610bef576040517f08c379a0000000000000000000000000000000000000000000000000000000008152600401610be6906115eb565b60405180910390fd5b8060400151341015610c36576040517f08c379a0000000000000000000000000000000000000000000000000000000008152600401610c2d906115ab565b60405180910390fd5b610c3f82611187565b73ffffffffffffffffffffffffffffffffffffffff16816020015173ffffffffffffffffffffffffffffffffffffffff1614610cb0576040517f08c379a0000000000000000000000000000000000000000000000000000000008152600401610ca7906115cb565b60405180910390fd5b336002600084815260200190815260200160002060006101000a81548173ffffffffffffffffffffffffffffffffffffffff021916908373ffffffffffffffffffffffffffffffffffffffff1602179055506040518060800160405280600015158152602001600073ffffffffffffffffffffffffffffffffffffffff16815260200160008152602001600073ffffffffffffffffffffffffffffffffffffffff168152506003600084815260200190815260200160002060008201518160000160006101000a81548160ff02191690831515021790555060208201518160000160016101000a81548173ffffffffffffffffffffffffffffffffffffffff021916908373ffffffffffffffffffffffffffffffffffffffff1602179055506040820151816001015560608201518160020160006101000a81548173ffffffffffffffffffffffffffffffffffffffff021916908373ffffffffffffffffffffffffffffffffffffffff1602179055509050506000606434610e3291906116d8565b905080600460008060009054906101000a900473ffffffffffffffffffffffffffffffffffffffff1673ffffffffffffffffffffffffffffffffffffffff1673ffffffffffffffffffffffffffffffffffffffff1681526020019081526020016000206000828254610ea49190611682565b925050819055506000601434610eba91906116d8565b90508060046000600160009054906101000a900473ffffffffffffffffffffffffffffffffffffffff1673ffffffffffffffffffffffffffffffffffffffff1673ffffffffffffffffffffffffffffffffffffffff1681526020019081526020016000206000828254610f2d9190611682565b925050819055508082610f409190611682565b34610f4b9190611709565b60046000856020015173ffffffffffffffffffffffffffffffffffffffff1673ffffffffffffffffffffffffffffffffffffffff1681526020019081526020016000206000828254610f9d9190611682565b9250508190555050505050565b6103e88310610fee576040517f08c379a0000000000000000000000000000000000000000000000000000000008152600401610fe59061158b565b60405180910390fd5b3373ffffffffffffffffffffffffffffffffffffffff1661100e84611187565b73ffffffffffffffffffffffffffffffffffffffff1614611064576040517f08c379a000000000000000000000000000000000000000000000000000000000815260040161105b9061162b565b60405180910390fd5b60405180608001604052806001151581526020013373ffffffffffffffffffffffffffffffffffffffff1681526020018381526020018273ffffffffffffffffffffffffffffffffffffffff168152506003600085815260200190815260200160002060008201518160000160006101000a81548160ff02191690831515021790555060208201518160000160016101000a81548173ffffffffffffffffffffffffffffffffffffffff021916908373ffffffffffffffffffffffffffffffffffffffff1602179055506040820151816001015560608201518160020160006101000a81548173ffffffffffffffffffffffffffffffffffffffff021916908373ffffffffffffffffffffffffffffffffffffffff160217905550905050505050565b60006103e882106111cd576040517f08c379a00000000000000000000000000000000000000000000000000000000081526004016111c49061158b565b60405180910390fd5b60006002600084815260200190815260200160002060009054906101000a900473ffffffffffffffffffffffffffffffffffffffff169050600073ffffffffffffffffffffffffffffffffffffffff168173ffffffffffffffffffffffffffffffffffffffff16141561126057600160009054906101000a900473ffffffffffffffffffffffffffffffffffffffff1690505b80915050919050565b60046020528060005260406000206000915090505481565b60008135905061129081611905565b92915050565b6000813590506112a58161191c565b92915050565b6000602082840312156112bd57600080fd5b60006112cb84828501611281565b91505092915050565b6000602082840312156112e657600080fd5b60006112f484828501611296565b91505092915050565b6000806040838503121561131057600080fd5b600061131e85828601611296565b925050602061132f85828601611296565b9150509250929050565b60008060006060848603121561134e57600080fd5b600061135c86828701611296565b935050602061136d86828701611296565b925050604061137e86828701611281565b9150509250925092565b6113918161173d565b82525050565b6113a08161174f565b82525050565b60006113b3601c83611671565b91506113be826117e3565b602082019050919050565b60006113d6601283611671565b91506113e18261180c565b602082019050919050565b60006113f9600d83611671565b915061140482611835565b602082019050919050565b600061141c601583611671565b91506114278261185e565b602082019050919050565b600061143f600083611666565b915061144a82611887565b600082019050919050565b6000611462600c83611671565b915061146d8261188a565b602082019050919050565b6000611485600f83611671565b9150611490826118b3565b602082019050919050565b60006114a8600983611671565b91506114b3826118dc565b602082019050919050565b6114c78161177b565b82525050565b60006114d882611432565b9150819050919050565b60006020820190506114f76000830184611388565b92915050565b60006080820190506115126000830187611397565b61151f6020830186611388565b61152c60408301856114be565b6115396060830184611388565b95945050505050565b60006040820190506115576000830185611397565b61156460208301846114be565b9392505050565b60006020820190508181036000830152611584816113a6565b9050919050565b600060208201905081810360008301526115a4816113c9565b9050919050565b600060208201905081810360008301526115c4816113ec565b9050919050565b600060208201905081810360008301526115e48161140f565b9050919050565b6000602082019050818103600083015261160481611455565b9050919050565b6000602082019050818103600083015261162481611478565b9050919050565b600060208201905081810360008301526116448161149b565b9050919050565b600060208201905061166060008301846114be565b92915050565b600081905092915050565b600082825260208201905092915050565b600061168d8261177b565b91506116988361177b565b9250827fffffffffffffffffffffffffffffffffffffffffffffffffffffffffffffffff038211156116cd576116cc611785565b5b828201905092915050565b60006116e38261177b565b91506116ee8361177b565b9250826116fe576116fd6117b4565b5b828204905092915050565b60006117148261177b565b915061171f8361177b565b92508282101561173257611731611785565b5b828203905092915050565b60006117488261175b565b9050919050565b60008115159050919050565b600073ffffffffffffffffffffffffffffffffffffffff82169050919050565b6000819050919050565b7f4e487b7100000000000000000000000000000000000000000000000000000000600052601160045260246000fd5b7f4e487b7100000000000000000000000000000000000000000000000000000000600052601260045260246000fd5b7f696e73756666696369656e7420617661696c61626c652066756e647300000000600082015250565b7f696e646578206f7574206f662072616e67650000000000000000000000000000600082015250565b7f7072696365206e6f74206d657400000000000000000000000000000000000000600082015250565b7f73656c6c6572206e6f206c6f6e676572206f776e730000000000000000000000600082015250565b50565b7f6e6f7420666f722073616c650000000000000000000000000000000000000000600082015250565b7f7472616e73666572206661696c65640000000000000000000000000000000000600082015250565b7f6e6f74206f776e65720000000000000000000000000000000000000000000000600082015250565b61190e8161173d565b811461191957600080fd5b50565b6119258161177b565b811461193057600080fd5b5056fea2646970667358221220fea875fd3ba18551e5cd21b0d626767edd8770609228a9da531efbc8333f350864736f6c63430008020033",
    "linkReferences": {},
    "deployedLinkReferences": {}
}